:020000040800F2
:1000000000500020A90D0008CD0C0008D50C0008F8
:10001000DD0C0008E50C0008ED0C000800000000F5
:10002000000000000000000000000000318A00080D
:10003000F50C000800000000118C0008857800080D
:10004000F10D0008F10D0008F10D0008F10D000898
:10005000F10D0008F10D0008F10D0008F10D000888
:10006000F10D0008F10D0008F10D0008F10D000878
:10007000F10D0008F10D0008F10D0008F10D000868
:10008000F10D0008F10D0008F10D0008F10D000858
:10009000010D0008F10D0008F10D0008F10D000838
:1000A000F10D00081D0D0008F10D0008F10D00080C
:1000B000F10D0008F10D0008F10D0008F10D000828
:1000C000F10D0008F10D0008F10D0008F10D000818
:1000D000F10D0008F10D0008F10D0008F10D000808
:1000E000F10D0008F10D0008F10D000800000000FE
:1000F0000000000000000000000000000000000000
:0C01000000000000000000005FF808F1A3
:1001100010B5054C237833B9044B13B10448AFF341
:1001200000800123237010BDD001002000000000DA
:10013000A8DF000808B5034B1BB103490348AFF320
:10014000008008BD00000000D4010020A8DF0008E6
:10015000034613F8012B002AFBD1181A0138704707
:1001600053B94AB9002908BF00281CBF4FF0FF311E
:100170004FF0FF3000F068B9ADF1080C6DE904CE26
:1001800000F006F8DDF804E0DDE9022304B0704772
:100190002DE9F047089D0C46002B4ED194468C4526
:1001A0008646B2FA82F262D94AB1C2F12003914086
:1001B00020FA03F30CFA02FC194300FA02FE4FEA9C
:1001C0001C47B1FBF7F407FB14111FFA8CF64FEA3A
:1001D0001E4343EA014304FB06F199420AD91CEB92
:1001E000030304F1FF3080F01081994240F20D8149
:1001F000023C6344591AB1FBF7F007FB101100FBF6
:1002000006F61FFA8EF343EA01439E420AD91CEB1D
:10021000030300F1FF3180F0FA809E4240F2F78044
:100220006344023800219B1B40EA04401DB1D340C7
:100230000022C5E90032BDE8F0878B4205D90DB137
:10024000C5E9000100210846F5E7B3FA83F100296A
:1002500046D1A34202D39042C0F0EE80861A64EBEE
:1002600003030120002DE6D0C5E90063E3E7002A7F
:1002700040F08F80A1EB0C0401214FEA1C481FFACB
:100280008CF7B4FBF8F608FB164407FB06F04FEAC0
:100290001E4343EA0443984208D91CEB030306F1CA
:1002A000FF3402D2984200F2CB8026461C1AB4FBDF
:1002B000F8F008FB104400FB07F71FFA8EF343EA3F
:1002C00004439F4208D91CEB030300F1FF3402D220
:1002D0009F4200F2AE802046DB1B40EA0640A5E7C5
:1002E000C1F120078B4022FA07FC4CEA030C24FAE8
:1002F00007F64FEA1C49B6FBF9F81FFA8CFE09FB1A
:10030000186620FA07F38C4000FA01FA08FB0EF099
:100310001C43230C43EA0643984202FA01F20AD92D
:100320001CEB030308F1FF3680F0818098427ED9F0
:10033000A8F1020863441E1AB6FBF9F309FB136621
:1003400003FB0EFEA4B244EA0644A64508D91CEB02
:10035000040403F1FF3066D2A64564D9023B64442D
:1003600043EA0840A0FB0283A4EB0E049C42C6466D
:100370001E4650D34DD055B1BAEB0E0364EB0604C4
:1003800004FA07F7CB401F43CC40C5E900740021B5
:1003900051E70CFA02FCC2F12003D9404FEA1C4895
:1003A00020FA03F300FA02FEB1FBF8F008FB10118B
:1003B00094401C431FFA8CF7230C43EA014300FBD3
:1003C00007F1994208D91CEB030300F1FF362CD248
:1003D00099422AD9023863445B1AB3FBF8F108FB4F
:1003E0001133A4B244EA034401FB07F3A34208D942
:1003F0001CEB040401F1FF3613D2A34211D90239D8
:100400006444E41A41EA00413BE70446F2E6084648
:1004100008E7C245AFD2B8EB020E63EB0C06013819
:10042000A9E73146EDE703469AE73046D4E7B04600
:1004300081E7634402384FE706462346084611E742
:10044000023E634432E700BF704700BF90B587B0FB
:1004500006AF00F0CFFC00F051F800F065F900F0B5
:10046000E1F800F0ABF800F035F900F009F9194AAD
:1004700019491A480CF0C2FE00200CF0D1FE0446C7
:100480000CF0D8FF0146164B0593164B0493164B00
:100490000393164B0293012301930223009300233D
:1004A000002220460CF080FE07F006FA0CF0CCFF8C
:1004B0000F4A00210F4807F0B7FA03460E4A1360AF
:1004C0000DF01AF80CF0DEFF0CF09EFF07F016FAA4
:1004D00000BFFDE759D10008F1D00008FC02002060
:1004E000E5CF0008B7D2000855D200086802002006
:1004F000C4E00008A1080008F802002080B594B00C
:1005000000AF07F128032822002118460DF066F8F5
:1005100007F1140300221A605A609A60DA601A61C7
:100520003B1D00221A605A609A60DA600123BB62A8
:100530004FF48033FB6200233B630123BB63022340
:100540007B644FF48033BB644FF48013FB6407F18A
:100550002803184603F06CF90346002B01D000F085
:10056000D9F90F237B610223BB610023FB614FF4A8
:1005700080633B6200237B6207F11403022118466B
:1005800003F0D8FB0346002B01D000F0C3F9102381
:100590007B6000233B613B1D184603F0C3FD03460F
:1005A000002B01D000F0B6F900224FF0E0610020EE
:1005B00003F0AAFC00BF5037BD4680BD80B500AF38
:1005C000164B174A1A60154B10225A60134B002223
:1005D0009A60124B0022DA60104B00221A610F4B16
:1005E00000225A610D4B00221A760C4B00225A76DB
:1005F0000A4B00229A76094B0022DA76074B00223A
:100600001A77064B00225A77044800F025FC03466F
:10061000002B01D000F07EF900BF80BDEC0100206E
:100620000064004080B500AF124B134A1A60114BB2
:10063000124A5A600F4B00229A600E4B0022DA6079
:100640000C4B4FF480421A610A4B00225A61094B4D
:1006500000229A61074B0022DA61064B00221A62DF
:10066000044801F041FA0346002B01D000F052F992
:1006700000BF80BD1402002000580040A086010089
:1006800080B500AF114B124A1A60104B4FF4E132A3
:100690005A600E4B00229A600C4B0022DA600B4B22
:1006A00000221A61094B0C225A61084B00229A6100
:1006B000064B0022DA61054804F028F80346002BB7
:1006C00001D000F027F900BF80BD00BF6802002004
:1006D0000038014080B500AF114B124A1A60104B30
:1006E0004FF4E1325A600E4B00229A600C4B00220C
:1006F000DA600B4B00221A61094B0C225A61084B3D
:1007000000229A61064B0022DA61054803F0FEFFE1
:100710000346002B01D000F0FDF800BF80BD00BFF4
:10072000B00200200044004080B588B000AF07F15F
:10073000100300221A605A609A60DA60544B9B6979
:10074000534A43F010039361514B9B6903F010032C
:10075000FB60FB684E4B9B694D4A43F0200393615D
:100760004B4B9B6903F02003BB60BB68484B9B6904
:10077000474A43F004039361454B9B6903F004032C
:100780007B607B68424B9B69414A43F0080393615D
:100790003F4B9B6903F008033B603B6800224FF42A
:1007A00000513C4801F087F9002202213A4801F04B
:1007B00082F900220421394801F07DF94FF40053F9
:1007C0003B6101237B610023BB610223FB6107F1D5
:1007D000100319462F4800F0D3FFF1233B61032398
:1007E0007B6107F1100319462B4800F0C9FF022373
:1007F0003B6101237B610023BB610223FB6107F1A5
:1008000010031946244800F0BBFF4FF2F9033B6187
:1008100003237B6107F110031946204800F0B0FF65
:1008200002233B6100237B610023BB6107F11003BE
:1008300019461A4800F0A4FF04233B6101237B61A1
:100840000023BB610223FB6107F110031946134823
:1008500000F096FF4FF480733B6102237B6102231B
:10086000FB6107F1100319460B4800F089FF4FF4B4
:1008700000433B6100237B610023BB6107F1100350
:100880001946054800F07CFF00BF2037BD4680BDFB
:10089000001002400010014000080140000C01401F
:1008A00080B584B000AF786007F1080300220E49DC
:1008B00018460CF048FD0BF0EBFE07F10803002191
:1008C00018460CF029FD642007F040F907F10803F1
:1008D000012118460CF020FD642007F037F9034889
:1008E0000CF062FB00BFE8E7FC020020CCDF000850
:1008F00080B582B000AF78607B681B68044A934281
:1009000001D100F08DFA00BF0837BD4680BD00BFA1
:10091000002C014080B400AF72B600BF00BFFDE7FD
:1009200080B584B000AF184B9B69174A43F00103B0
:100930009361154B9B6903F00103BB60BB68124BCD
:10094000DB69114A43F08053D3610F4BDB6903F03D
:1009500080537B607B6800220F216FF0010000F064
:1009600058FE0A4B5B68FB60FB6823F0E063FB60AA
:10097000FB6843F00073FB60044AFB68536000BFF0
:100980001037BD4680BD00BF00100240000001408E
:1009900080B58AB000AF786007F1140300221A60B6
:1009A0005A609A60DA607B681B68294A93424BD18F
:1009B000284BDB69274A43F00073D361254BDB6981
:1009C00003F000733B613B69224B9B69214A43F072
:1009D000080393611F4B9B6903F00803FB60FB68EE
:1009E0004FF480737B610023BB610023FB6107F13F
:1009F00014031946184800F0C3FE4FF400737B61DE
:100A00000223BB6103233B6207F11403194612481A
:100A100000F0B6FE114B5B687B627B6A23F4C04337
:100A20007B627B6A43F0E0637B627B6A43F48043D2
:100A30007B620A4A7B6A536000220521142000F081
:100A4000E8FD142000F001FE00BF2837BD4680BD40
:100A50000064004000100240000C01400000014012
:100A600080B588B000AF786007F1100300221A60EB
:100A70005A609A60DA607B681B68164A934224D1F8
:100A8000154B9B69144A43F008039361124B9B6911
:100A900003F00803FB60FB684FF440633B611223E3
:100AA0007B610323FB6107F1100319460B4800F03B
:100AB00067FE094BDB69084A43F48003D361064BA8
:100AC000DB6903F48003BB60BB6800BF2037BD4611
:100AD00080BD00BF0058004000100240000C0140E3
:100AE00080B58AB000AF786007F1180300221A6061
:100AF0005A609A60DA607B681B68374A934232D149
:100B0000364B9B69354A43F480439361334B9B6971
:100B100003F480437B617B69304B9B692F4A43F030
:100B2000040393612D4B9B6903F004033B613B6914
:100B30004FF40073BB610223FB6103237B6207F167
:100B400018031946264800F01BFE4FF48063BB6172
:100B50000023FB6100233B6207F11803194620487C
:100B600000F00EFE34E07B681B681E4A93422FD1D2
:100B70001A4BDB69194A43F40033D361174BDB6925
:100B800003F40033FB60FB68144B9B69134A43F08A
:100B900004039361114B9B6903F00403BB60BB68C2
:100BA0000423BB610223FB6103237B6207F118036B
:100BB00019460B4800F0E4FD0823BB610023FB61EC
:100BC00000233B6207F118031946054800F0D8FDE1
:100BD00000BF2837BD4680BD0038014000100240EC
:100BE000000801400044004080B58CB000AF786040
:100BF0000023BB6200237B62002387F82F302E4B3B
:100C00009B692D4A43F4006393612B4B9B6903F46A
:100C10000063BB60BB6807F10C0207F110031146CB
:100C2000184603F031FA03F01BFAB862BB6A234A94
:100C3000A2FB03239B0C013B7B62214B214A1A60E0
:100C40001F4B40F2E732DA601D4A7B6A53601C4B4F
:100C500000221A611A4B00229A60194B00229A61F5
:100C6000174803F015FB034687F82F3097F82F300D
:100C7000002B1BD1124803F063FB034687F82F308B
:100C800097F82F30002B11D1192000F0DEFC7B6883
:100C90000F2B08D800227968192000F0BAFC0A4A04
:100CA0007B68136002E0012387F82F3097F82F301C
:100CB00018463037BD4680BD0010024083DE1B431E
:100CC00004030020002C01400400002080B400AF89
:100CD00000BFFDE780B400AF00BFFDE780B400AF08
:100CE00000BFFDE780B400AF00BFFDE780B400AFF8
:100CF00000BFFDE780B400AF00BFBD4680BC7047B9
:100D000080B500AF034800F0A2F9034801F04CF9A8
:100D100000BF80BDEC010020043E002080B500AF84
:100D2000024803F05FFB00BF80BD00BF040300204A
:100D300080B586B000AF7860144A154BD31A7B613A
:100D40007B693B61134B1B68002B02D1114B124A8C
:100D50001A60104B1A687B6813443A699A4207D2AA
:100D60000CF09AFC03460C221A604FF0FF3309E0A6
:100D7000084B1B68FB60074B1A687B681344054AE5
:100D80001360FB6818461837BD4680BD0050002030
:100D9000000400004C030020A044002080B400AFF9
:100DA00000BFBD4680BC7047FFF7F8FF0B480C49F9
:100DB0000C4A002302E0D458C4500433C4188C42B7
:100DC000F9D3094A094C002301E013600432A2421E
:100DD000FBD30CF067FCFFF739FB704700000020E5
:100DE000D0010020D8E10008D0010020A04400205C
:100DF000FEE7000080B500AF084B1B68074A43F0D0
:100E000010031360032000F0F9FB0F20FFF7ECFE46
:100E1000FFF786FD0023184680BD00BF002002407A
:100E200080B400AF054B1B781A46054B1B68134472
:100E3000034A136000BFBD4680BC70470800002015
:100E40005003002080B400AF024B1B681846BD461B
:100E500080BC70475003002080B584B000AF78603C
:100E60007B68002B01D10123EDE07B6893F82030F3
:100E7000DBB2002B02D17868FFF78AFD7B681B6824
:100E80001A687B681B6842F001021A60FFF7DAFFFC
:100E9000F86012E0FFF7D6FF0246FB68D31A0A2B70
:100EA0000BD97B685B6A43F400327B685A627B68CB
:100EB000052283F820200123C5E07B681B685B685E
:100EC00003F00103002BE5D07B681B681A687B6880
:100ED0001B6822F002021A60FFF7B4FFF86012E00C
:100EE000FFF7B0FF0246FB68D31A0A2B0BD97B68C9
:100EF0005B6A43F400327B685A627B68052283F8A0
:100F0000202001239FE07B681B685B6803F00203DD
:100F1000002BE5D17B681B7E012B08D17B681B6809
:100F20001A687B681B6842F080021A6007E07B68E1
:100F30001B681A687B681B6822F080021A607B6855
:100F40005B7E012B08D17B681B681A687B681B6875
:100F500042F040021A6007E07B681B681A687B68F1
:100F60001B6822F040021A607B689B7E012B08D12F
:100F70007B681B681A687B681B6842F020021A6055
:100F800007E07B681B681A687B681B6822F02002F8
:100F90001A607B68DB7E012B08D17B681B681A68AE
:100FA0007B681B6822F010021A6007E07B681B68F0
:100FB0001A687B681B6842F010021A607B681B7F0E
:100FC000012B08D17B681B681A687B681B6842F09C
:100FD00008021A6007E07B681B681A687B681B6858
:100FE00022F008021A607B685B7F012B08D17B68C6
:100FF0001B681A687B681B6842F004021A6007E0ED
:101000007B681B681A687B681B6822F004021A6000
:101010007B689A687B68DB681A437B681B691A43A4
:101020007B685B6942EA03017B685B685A1E7B68E8
:101030001B680A43DA617B6800225A627B680122DE
:1010400083F82020002318461037BD4680BD80B5A8
:101050008AB000AF786000237B627B681B685B69A5
:101060003B627B681B685B68FB617B681B689B68F5
:10107000BB617B681B68DB687B617B681B681B69E5
:101080003B617B681B689B69FB603B6A03F0010363
:10109000002B7CD0BB6903F00103002B23D07B68BD
:1010A0001B6801229A60BB6903F00203002B03D086
:1010B000786800F083F916E0BB6903F00403002BA5
:1010C00004D07B6A43F400637B620CE0BB6903F0ED
:1010D0000803002B04D07B6A43F480537B6202E058
:1010E000786800F086F9BB6903F48073002B24D084
:1010F0007B681B684FF480729A60BB6903F40073CD
:10110000002B03D0786800F062F916E0BB6903F4A5
:101110008063002B04D07B6A43F400537B620CE0B5
:10112000BB6903F40063002B04D07B6A43F4804363
:101130007B6202E0786800F065F9BB6903F48033F4
:10114000002B24D07B681B684FF480329A60BB6907
:1011500003F40033002B03D0786800F041F916E067
:10116000BB6903F48023002B04D07B6A43F4004363
:101170007B620CE0BB6903F40023002B04D07B6A84
:1011800043F480337B6202E0786800F044F93B6A04
:1011900003F00803002B0CD07B6903F01003002B35
:1011A00007D07B6A43F400737B627B681B68102264
:1011B000DA603B6A03F00403002B0BD07B6903F079
:1011C0000803002B06D07B681B680822DA60786869
:1011D00000F033F93B6A03F00203002B09D07B686F
:1011E0001B68DB6803F00303002B02D0786800F073
:1011F0001BF93B6A03F04003002B0CD03B6903F062
:101200001003002B07D07B6A43F480637B627B680A
:101210001B6810221A613B6A03F02003002B0BD0DD
:101220003B6903F00803002B06D07B681B6808228B
:101230001A61786800F013F93B6A03F01003002B81
:1012400009D07B681B681B6903F00303002B02D0E5
:10125000786800F0FBF83B6A03F40033002B0BD0F6
:10126000FB6903F01003002B06D07B681B6810227B
:101270005A60786800F0FCF83B6A03F48033002B76
:101280000BD0FB6903F00803002B06D07B681B68BA
:1012900008225A60786800F0F4F83B6A03F40043CF
:1012A000002B7BD0FB6903F00403002B72D03B6A58
:1012B00003F48073002B08D0FB6803F00103002BBC
:1012C00003D07B6A43F001037B623B6A03F4007343
:1012D000002B08D0FB6803F00203002B03D07B6ACD
:1012E00043F002037B623B6A03F48063002B08D067
:1012F000FB6803F00403002B03D07B6A43F0040374
:101300007B623B6A03F40063002B43D0FB6803F06D
:101310007003002B3ED0FB6803F07003602B2BD0D2
:10132000602B2ED8502B22D0502B2AD8402B19D0EE
:10133000402B26D8302B10D0302B22D8102B02D0A7
:10134000202B05D01DE07B6A43F008037B6219E087
:101350007B6A43F010037B6214E07B6A43F0200356
:101360007B620FE07B6A43F040037B620AE07B6AAA
:1013700043F080037B6205E07B6A43F480737B6209
:1013800000E000BF7B681B689A697B681B6822F0DD
:1013900070029A617B681B6804225A607B6A002B8A
:1013A00008D07B685A6A7B6A1A437B685A627868FD
:1013B00000F070F800BF2837BD4680BD80B483B010
:1013C00000AF786000BF0C37BD4680BC704780B46A
:1013D00083B000AF786000BF0C37BD4680BC70475B
:1013E00080B483B000AF786000BF0C37BD4680BCCE
:1013F000704780B483B000AF786000BF0C37BD4643
:1014000080BC704780B483B000AF786000BF0C37F9
:10141000BD4680BC704780B483B000AF786000BF29
:101420000C37BD4680BC704780B483B000AF786095
:1014300000BF0C37BD4680BC704780B483B000AF9E
:10144000786000BF0C37BD4680BC704780B483B065
:1014500000AF786000BF0C37BD4680BC704780B4D9
:1014600083B000AF786000BF0C37BD4680BC7047CA
:1014700080B483B000AF786000BF0C37BD4680BC3D
:10148000704780B483B000AF786000BF0C37BD46B2
:1014900080BC704780B483B000AF786000BF0C3769
:1014A000BD4680BC7047000080B485B000AF786056
:1014B0007B6803F00703FB600C4BDB68BB60BA681A
:1014C0004FF6FF031340BB60FB681A02BB6813436F
:1014D00043F0BF6343F40033BB60044ABB68D3608E
:1014E00000BF1437BD4680BC704700BF00ED00E070
:1014F00080B400AF044BDB681B0A03F007031846F7
:10150000BD4680BC704700BF00ED00E080B483B0F2
:1015100000AF0346FB7197F90730002B0BDBFB791B
:1015200003F01F02064997F907305B09012000FA12
:1015300002F241F8232000BF0C37BD4680BC704743
:1015400000E100E080B483B000AF03463960FB7176
:1015500097F90730002B0ADB3B68DAB20C4997F9A0
:1015600007301201D2B20B4483F800230AE03B6833
:10157000DAB20849FB7903F00F03043B1201D2B23F
:101580000B441A7600BF0C37BD4680BC704700BFC5
:1015900000E100E000ED00E080B489B000AFF86049
:1015A000B9607A60FB6803F00703FB61FB69C3F174
:1015B0000703042B28BF0423BB61FB690433062BFC
:1015C00002D9FB69033B00E000237B614FF0FF324F
:1015D000BB6902FA03F3DA43BB681A407B699A409D
:1015E0004FF0FF317B6901FA03F3D9437B680B406D
:1015F000134318462437BD4680BC704780B582B07F
:1016000000AF78607868FFF74FFF00BF0837BD462E
:1016100080BD80B586B000AF0346B9607A60FB73C9
:1016200000237B61FFF764FF78617A68B9687869A5
:10163000FFF7B2FF024697F90F3011461846FFF741
:1016400081FF00BF1837BD4680BD80B582B000AFB6
:101650000346FB7197F907301846FFF757FF00BFA5
:101660000837BD4680BD80B586B000AFF860B96070
:101670007A603B600023FB75FB6893F82030012BF8
:1016800001D102234BE0FB68012283F82020FB6894
:1016900093F82130DBB2012B3AD1FB68022283F8A8
:1016A0002120FB6800229A63FB681B681A68FB68AC
:1016B0001B6822F001021A603B687A68B968F86812
:1016C00000F031F8FB68DB6A002B08D0FB681B6870
:1016D0001A68FB681B6842F00E021A600FE0FB6894
:1016E0001B681A68FB681B6822F004021A60FB681A
:1016F0001B681A68FB681B6842F00A021A60FB68E4
:101700001B681A68FB681B6842F001021A6005E05A
:10171000FB68002283F820200223FB75FB7D18461E
:101720001837BD4680BD80B485B000AFF860B960A1
:101730007A603B60FB681A6CFB68DB6B012101FA85
:1017400002F25A60FB681B683A685A60FB685B6883
:10175000102B08D1FB681B687A689A60FB681B68CD
:10176000BA68DA6007E0FB681B68BA689A60FB68D1
:101770001B687A68DA6000BF1437BD4680BC7047CA
:1017800080B48BB000AF7860396000237B620023A7
:101790003B6269E101227B6A02FA03F3FB613B6869
:1017A0001B68FA691340BB61BA69FB699A4240F051
:1017B00058813B685B689A4A93425ED0984A93424C
:1017C00075D8984A934258D0964A93426FD8964A11
:1017D000934252D0944A934269D8944A93424CD04F
:1017E000924A934263D8924A934246D0904A934297
:1017F0005DD8122B2AD8122B59D801A252F823F007
:101800007B1800085518000867180008A918000878
:10181000AF180008AF180008AF180008AF1800088C
:10182000AF180008AF180008AF180008AF1800087C
:10183000AF180008AF180008AF180008AF1800086C
:10184000AF1800085D18000871180008794A934223
:1018500013D02CE03B68DB683B6229E03B68DB6827
:1018600004333B6224E03B68DB6808333B621FE0E3
:101870003B68DB680C333B621AE03B689B68002BDB
:1018800002D104233B6213E03B689B68012B05D126
:1018900008233B627B68FA691A6109E008233B620E
:1018A0007B68FA695A6103E000233B6200E000BFF5
:1018B000BB69FF2B01D87B6801E07B6804337B6147
:1018C000BB69FF2B02D87B6A9B0002E07B6A083B66
:1018D0009B003B617B691A680F213B6901FA03F3A6
:1018E000DB431A40396A3B6901FA03F31A437B6907
:1018F0001A603B685B6803F08053002B00F0B180F6
:101900004D4B9B694C4A43F0010393614A4B9B69E1
:1019100003F00103BB60BB68484A7B6A9B08023343
:1019200052F82330FB607B6A03F003039B000F2215
:1019300002FA03F3DB43FA681340FB607B68404A1A
:10194000934213D07B683F4A93420DD07B683E4A56
:10195000934207D07B683D4A934201D1032306E0BE
:10196000042304E0022302E0012300E000237A6A5A
:1019700002F0030292009340FA681343FB602F4980
:101980007B6A9B080233FA6841F823203B685B6856
:1019900003F48013002B06D02D4B9A682C49BB69A9
:1019A00013438B6006E02A4B9A68BB69DB432849E6
:1019B00013408B603B685B6803F40013002B06D078
:1019C000234BDA682249BB691343CB6006E0204B06
:1019D000DA68BB69DB431E491340CB603B685B6838
:1019E00003F40033002B06D0194B5A681849BB6921
:1019F00013434B6006E0164B5A68BB69DB4314493E
:101A000013404B603B685B6803F48033002B21D0AC
:101A10000F4B1A680E49BB6913430B6021E000BFEE
:101A200000003210000031100000221000002110D0
:101A300000001210000011100010024000000140D0
:101A400000080140000C014000100140001401405A
:101A5000000401400B4B1A68BB69DB430949134082
:101A60000B607B6A01337B623B681A687B6A22FAEF
:101A700003F3002B7FF48EAE00BF00BF2C37BD46B2
:101A800080BC70470004014080B485B000AF78602E
:101A90000B467B807B689A687B881340002B02D0C2
:101AA0000123FB7301E00023FB73FB7B1846143713
:101AB000BD4680BC704780B483B000AF78600B46F1
:101AC0007B8013467B707B78002B03D07A887B6801
:101AD0001A6103E07B881A047B681A6100BF0C3727
:101AE000BD4680BC7047000080B584B000AF786010
:101AF0007B68002B01D101232BE17B6893F83D30FB
:101B0000DBB2002B06D17B68002283F83C2078688A
:101B1000FEF7A6FF7B68242283F83D207B681B68C4
:101B20001A687B681B6822F001021A607B681B68D8
:101B30001A687B681B6842F400421A607B681B6865
:101B40001A687B681B6822F400421A6002F074FA7B
:101B5000F8607B685B68814A934207D8FB68804ADB
:101B6000934294BF01230023DBB206E0FB687D4A69
:101B7000934294BF01230023DBB2002B01D0012349
:101B8000E7E0FB68784AA2FB03239B0CBB607B6801
:101B90001B685B6823F03F017B681B68BA680A43D7
:101BA0005A607B681B681B6A23F03F017B685B6897
:101BB0006A4A934202D8BB68013309E0BB684FF41C
:101BC000967202FB03F3694AA2FB03239B090133CC
:101BD0007A6812680B4313627B681B68DB6923F425
:101BE0004F4222F0FF027B685B685C498B4219D848
:101BF000FB68591E7B685B685B00B1FBF3F3591C03
:101C000040F6FC730B40002B0AD0FB68591E7B6822
:101C10005B685B00B1FBF3F30133C3F30B0351E0EB
:101C200004234FE07B689B68002B11D1FB68581E92
:101C30007B6859680B465B000B44B0FBF3F3013340
:101C4000C3F30B03002B0CBF01230023DBB212E014
:101C5000FB68581E7B6859680B469B000B44990033
:101C60000B44B0FBF3F30133C3F30B03002B0CBFA6
:101C700001230023DBB2002B01D0012322E07B688B
:101C80009B68002B0ED1FB68581E7B6859680B4679
:101C90005B000B44B0FBF3F30133C3F30B0343F4DA
:101CA00000430FE0FB68581E7B6859680B469B0099
:101CB0000B4499000B44B0FBF3F30133C3F30B0364
:101CC00043F44043796809681343CB617B681B6820
:101CD0001B6823F0C0017B68DA697B681B6A1A43C2
:101CE0007B681B680A431A607B681B689B6823F447
:101CF000034323F0FF037A6811697A68D2681143BD
:101D00007A6812680B4393607B681B68DB6823F07A
:101D1000FF017B685A697B689B691A437B681B6873
:101D20000A43DA607B681B681A687B681B6842F0AC
:101D300001021A607B6800221A647B68202283F803
:101D40003D207B6800221A637B68002283F83E20D6
:101D5000002318461037BD4680BD00BFA086010095
:101D60007F841E00FF083D0083DE1B43D34D6210BD
:101D700080B584B000AF78607B68002B01D101236F
:101D8000E8E07B6893F89132DBB2002B06D17B68E8
:101D9000002283F8902278680AF046FE7B680322CE
:101DA00083F891227B6800225A717B681B68184671
:101DB00003F0CBF97B6818687B6804330ECB03F023
:101DC000A1F90346002B05D07B68022283F89122FB
:101DD0000123BFE07B681B680021184603F0CFF9A0
:101DE0000346002B05D07B68022283F89122012351
:101DF000B0E00023FB733EE0FA7B796813469B005A
:101E00001344DB000B44113301221A70FA7B79680A
:101E100013469B001344DB000B441033FA7B1A700B
:101E2000FA7B796813469B001344DB000B441333A1
:101E300000221A70FA7B796813469B001344DB007A
:101E40000B44203300221A60FA7B796813469B000A
:101E50001344DB000B44243300221A60FB7B7968B7
:101E60005A1C13469B001344DB000B4400221A60EB
:101E7000FB7B0133FB737B681B79FA7B9A42BBD3F4
:101E80000023FB7344E0FA7B796813469B001344FC
:101E9000DB000B4403F2511300221A70FA7B7968BD
:101EA00013469B001344DB000B4403F5A873FA7B35
:101EB0001A70FA7B796813469B001344DB000B44CD
:101EC00003F2531300221A70FA7B796813469B00C1
:101ED0001344DB000B4403F5B07300221A60FA7B55
:101EE000796813469B001344DB000B4403F5B2737F
:101EF00000221A60FA7B796813469B001344DB00CA
:101F00000B4403F5B47300221A60FB7B0133FB73AF
:101F10007B681B79FA7B9A42B5D37B6818687B682B
:101F200004330ECB03F037F90346002B05D07B6852
:101F3000022283F8912201230CE07B6800225A736D
:101F40007B68012283F891227B681B68184605F0A4
:101F5000B6FB002318461037BD4680BD80B582B061
:101F600000AF78607B6893F89032012B01D1022397
:101F700016E07B68012283F890227B681B68184674
:101F800003F0CDF8012178680AF0C1FF7B681B6877
:101F9000184605F08AFB7B68002283F89022002314
:101FA00018460837BD4680BD80B588B000AF786060
:101FB0007B681B68184605F08CFBB861BB6903F4AD
:101FC0000043002B03D0786800F01AFB19E1BB69CD
:101FD00003F48063002B13D07B681B68B3F8443094
:101FE0009AB27B681B6822F4806292B2A3F8442004
:101FF00078680AF094FD0021786800F005F900E1A6
:10200000BB6903F48043002B0CD07B681B68B3F8DA
:1020100044309AB27B681B6822F4804292B2A3F8E3
:102020004420EEE0BB6903F40053002B0CD07B6826
:102030001B68B3F844309AB27B681B6822F40052E4
:1020400092B2A3F84420DCE0BB6903F48053002B78
:1020500027D07B681B68B3F840309AB27B681B6856
:1020600022F0040292B2A3F840207B681B68B3F808
:1020700040309AB27B681B6822F0080292B2A3F843
:10208000402078680AF084FD7B681B68B3F8443010
:102090009AB27B681B6822F4805292B2A3F8442063
:1020A000AFE0BB6903F40063002B00F083800023E2
:1020B000FB7710E07B681B681A46FB7F9B001A4485
:1020C000FB7F128892B25B0020333B4423F8182C2C
:1020D000FB7F0133FB77FB7F072BEBD97B681B680A
:1020E000B3F840309AB27B681B6842F0010292B2AA
:1020F000A3F840207B681B68B3F840309AB27B6835
:102100001B6822F0010292B2A3F8402000BF7B6856
:102110001B68B3F844309BB203F48063002BF6D005
:102120007B681B68B3F844309AB27B681B6822F462
:10213000806292B2A3F844200023FB770FE0FB7F7C
:102140007A6812681146FA7F92000A445B002033D5
:102150003B4433F8183C1380FB7F0133FB77FB7F54
:10216000072BECD97B681B68B3F840309AB27B68C8
:102170001B6842F0080292B2A3F840207B681B68FB
:10218000B3F844309AB27B681B6822F4006292B2C2
:10219000A3F844207B681B68B3F840309AB27B6890
:1021A0001B6842F0040292B2A3F8402078680AF05B
:1021B000D5FC26E0BB6903F40073002B0FD07B68CD
:1021C0001B68B3F844309AB27B681B6822F4007233
:1021D00092B2A3F8442078680AF093FC11E0BB693E
:1021E00003F48073002B0CD07B681B68B3F8443079
:1021F0009AB27B681B6822F4807292B2A3F84420E2
:1022000000BF2037BD4680BD80B582B000AF78608A
:102210000B46FB707B6893F89032012B01D10223AF
:1022200012E07B68012283F890227B68FA785A7367
:102230007B681B68FA781146184605F023FA7B681C
:10224000002283F89022002318460837BD4680BD3F
:1022500080B584B000AF7860084611461A46034640
:10226000FB700B463B801346BB700023FB7297F953
:102270000330002B0EDAFB7803F0070213469B00B5
:102280001344DB0010337A681344FB60FB680122BF
:102290005A700EE0FB7803F0070213469B001344CC
:1022A000DB0003F5A8737A681344FB60FB68002227
:1022B0005A70FB7803F00703DAB2FB681A703A88A9
:1022C000FB681A61FB68BA78DA70BB78022B02D11E
:1022D000FB6800221A717B6893F89032012B01D1C0
:1022E00002230EE07B68012283F890227B681B6842
:1022F000F968184602F06CFF7B68002283F8902290
:10230000FB7A18461037BD4680BD80B584B000AF5B
:1023100078600B46FB7097F90330002B0EDAFB78E0
:1023200003F0070213469B001344DB0010337A6866
:102330001344FB60FB6801225A700EE0FB7803F047
:10234000070213469B001344DB0003F5A8737A6869
:102350001344FB60FB6800225A70FB7803F007030C
:10236000DAB2FB681A707B6893F89032012B01D1C6
:1023700002230EE07B68012283F890227B681B68B1
:10238000F968184603F0E4FA7B68002283F890228B
:10239000002318461037BD4680BD80B586B000AF1B
:1023A000F8607A603B600B46FB72FB7A03F0070231
:1023B00013469B001344DB0003F5A873FA6813442B
:1023C0007B617B697A685A617B693A689A617B694B
:1023D0000022DA617B6900225A70FB7A03F007035E
:1023E000DAB27B691A70FB681B687969184603F0DA
:1023F0009BFC002318461837BD4680BD80B483B0CF
:1024000000AF78600B46FB70FB7803F00702796839
:1024100013469B001344DB000B4403F5B6731B68A3
:1024200018460C37BD4680BC704780B586B000AFFB
:10243000F8607A603B600B46FB72FB7A03F00702A0
:1024400013469B001344DB001033FA6813447B618E
:102450007B697A685A617B693A689A617B69012273
:1024600083F824207B693A681A627B690022DA616A
:102470007B6901225A70FB7A03F00703DAB27B69A9
:102480001A70FB681B687969184603F04DFC00233D
:1024900018461837BD4680BD80B584B000AF78605F
:1024A0000B46FB70FB7803F007037A6812799342BE
:1024B00001D901234CE097F90330002B0EDAFB78A9
:1024C00003F0070213469B001344DB0010337A68C5
:1024D0001344FB60FB6801225A700CE0FA78134643
:1024E0009B001344DB0003F5A8737A681344FB6078
:1024F000FB6800225A70FB6801229A70FB7803F097
:102500000703DAB2FB681A707B6893F89032012BEC
:1025100001D102231CE07B68012283F890227B68B2
:102520001B68F968184604F0B0FFFB7803F0070356
:10253000002B08D17B681A687B6803F5267319465F
:10254000104605F0D5F87B68002283F8902200231E
:1025500018461037BD4680BD80B584B000AF7860A6
:102560000B46FB70FB7803F00F037A6812799342F5
:1025700001D9012340E097F90330002B0EDAFB78F4
:1025800003F0070213469B001344DB0010337A6804
:102590001344FB60FB6801225A700EE0FB7803F0E5
:1025A000070213469B001344DB0003F5A8737A6807
:1025B0001344FB60FB6800225A70FB6800229A708B
:1025C000FB7803F00703DAB2FB681A707B6893F8B4
:1025D0009032012B01D102230EE07B68012283F8A7
:1025E00090227B681B68F968184604F09EFF7B68A0
:1025F000002283F89022002318461037BD4680BD84
:1026000080B596B000AF7860BBE37B681B68B3F819
:102610004430A7F84E30B7F84E30DBB203F00F036A
:1026200087F84D3097F84D30002B40F07581B7F8A2
:102630004E3003F01003002B4ED17B681B681B88C3
:102640009BB223F4E14323F07003FB817B681A689B
:10265000FB896FEA43436FEA53439BB213807B6865
:1026600010337B657B681B68B3F850309BB21A4609
:102670007B6D1B78DB00134402335B007A681268C1
:10268000134403F580631B88C3F309027B6DDA6191
:102690007B6D5A697B6DDB691A447B6D5A61002141
:1026A00078680AF014FA7B685B7BDBB2002B00F0E1
:1026B00068837B6D9B69002B40F063837B685B7B49
:1026C000DBB263F07F03DAB27B681B68A3F84C20AF
:1026D0007B6800225A7354E37B6803F5A8737B651B
:1026E0007B681B681B88A7F84A30B7F84A3003F4A8
:1026F0000063002B34D07B681B68B3F850309BB26A
:102700001A467B6D1B78DB00134406335B007A6846
:102710001268134403F580631B88C3F309027B6DC1
:10272000DA617B6818687B6803F526717B6DDA884F
:102730007B6DDB699BB205F02BF87B681B681B88FF
:102740009AB240F68F7313403B827B681B683A8ACB
:1027500042F0800292B21A8078680AF08BF910E396
:10276000B7F94A30002B80F20C837B681B681B880A
:102770009AB240F68F731340FB837B681B68FA8B19
:1027800042F0800292B21A807B681B68B3F8503026
:102790009BB21A467B6D1B78DB00134406335B004B
:1027A0007A681268134403F580631B88C3F3090237
:1027B0007B6DDA617B6DDB69002B19D07B6D5B690A
:1027C000002B15D07B6818687B6D59697B6DDA88A2
:1027D0007B6DDB699BB204F0DBFF7B6D5A697B6D1F
:1027E000DB691A447B6D5A61002178680AF054F95C
:1027F0007B681B681B88A7F84A30B7F84A3003F497
:102800000063002B40F0BD82B7F84A3003F4405318
:10281000B3F5405F00F0B5827B681B68BB617B68E5
:102820001B68B3F850309BB21A46BB691344BB61B6
:10283000BB6903F20C437B617B691B889BB2C3F3CA
:1028400009039AB27B691A807B6D1B693E2B1DD9E7
:102850007B6D1B695B097B647B6D1B6903F01F0348
:10286000002B02D17B6C013B7B647B691B889AB295
:102870007B6C9BB29B029BB213439BB26FEA4343B8
:102880006FEA53439AB27B691A8026E07B6D1B691D
:10289000002B0AD17B691B889BB26FEA43436FEA26
:1028A00053439AB27B691A8017E07B6D1B695B0802
:1028B0007B647B6D1B6903F00103002B02D07B6CF2
:1028C00001337B647B691B889AB27B6C9BB29B0251
:1028D0009BB213439AB27B691A807B681B681B8882
:1028E0009BB223F4804323F070037B827B8A83F4C2
:1028F00080537B827B8A83F400537B827B681A68D7
:102900007B8A43F07F4343F47F0343F4004343F067
:1029100080039BB2138034E27B681B681A4697F8E9
:102920004D309B0013441B88A7F84A30B7F94A3052
:10293000002B80F2FC807B681B681A4697F84D30AC
:102940009B0013441B889AB240F68F731340A7F87C
:1029500048307B681B681A4697F84D309B0013443B
:10296000B7F8482042F0800292B21A8097F84D20C2
:1029700013469B001344DB0003F5A8737A681344E5
:102980007B657B6D1B7B002B25D17B681B68B3F8B7
:1029900050309BB21A467B6D1B78DB001344063324
:1029A0005B007A681268134403F580631B88C3F3E5
:1029B0000903A7F85030B7F85030002B00F0928090
:1029C0007B6818687B6D59697B6DDA88B7F8503081
:1029D00004F0DEFE86E07B6DDB78022B0AD1B7F8CF
:1029E0004A301A46796D786800F0D9F90346A7F89D
:1029F000503077E07B681B681A467B6D1B789B0024
:102A000013441B889BB223F4E04323F07003A7F820
:102A100052307B681B681A467B6D1B789B001A44FA
:102A2000B7F8523043F07F4343F47F0343F400434D
:102A300043F0C0039BB213807B681B681A467B6D12
:102A40001B789B0013441B889BB203F48043002B2C
:102A500024D07B681B68B3F850309BB21A467B6D5C
:102A60001B78DB00134402335B007A68126813445E
:102A700003F580631B88C3F30903A7F85030B7F848
:102A80005030002B2ED07B6818687B6D59697B6DA8
:102A90001A89B7F8503004F07BFE23E07B681B688E
:102AA000B3F850309BB21A467B6D1B78DB001344A1
:102AB00006335B007A681268134403F580631B8851
:102AC000C3F30903A7F85030B7F85030002B09D0F2
:102AD0007B6818687B6D59697B6D5A89B7F85030EF
:102AE00004F056FE7B6DDA69B7F850301A447B6DFE
:102AF000DA617B6D5A69B7F850301A447B6D5A61C0
:102B00007B6D9B69002B05D0B7F850207B6D1B694E
:102B10009A4206D27B6D1B781946786809F0BCFF93
:102B200005E07B681B68796D184603F0FDF8B7F87F
:102B30004A3003F08003002B00F0238197F84D20EA
:102B400013469B001344DB0010337A6813447B6503
:102B50007B681B681A4697F84D309B0013441B880E
:102B60009BB223F4E14323F07003A7F842307B6863
:102B70001B681A4697F84D309B001A44B7F842304C
:102B80006FEA43436FEA53439BB213807B6DDB785C
:102B9000012B40F0A2807B6D00229A617B6D1B7B34
:102BA000002B00F09380B7F84A3003F04003002B6D
:102BB00046D07B6D5B78002B26D17B681B687B62DF
:102BC0007B681B68B3F850309BB21A467B6A13448B
:102BD0007B627B6D1B781A017B6A134403F204430A
:102BE0003B623B6A1B889BB2C3F309039AB23B6A00
:102BF0001A803B6A1B889BB26FEA43436FEA5343D8
:102C00009AB23B6A1A8061E07B6D5B78012B5DD1E3
:102C10007B681B68FB627B681B68B3F850309BB213
:102C20001A46FB6A1344FB627B6D1B781A01FB6A30
:102C3000134403F20443BB62BB6A00221A8045E0DE
:102C40007B681B68FB637B6D5B78002B26D17B6800
:102C50001B687B637B681B68B3F850309BB21A46D5
:102C60007B6B13447B637B6D1B781A017B6B134476
:102C700003F20C433B633B6B1B889BB2C3F309031A
:102C80009AB23B6B1A803B6B1B889BB26FEA434343
:102C90006FEA53439AB23B6B1A8017E07B6D5B7807
:102CA000012B13D17B681B68B3F850309BB21A46D6
:102CB000FB6B1344FB637B6D1B781A01FB6B1344A6
:102CC00003F20C43BB63BB6B00221A807B6D1B7845
:102CD0001946786809F0FBFE53E0B7F84A3003F470
:102CE0008073002B46D17B681B68B3F850309BB2D1
:102CF0001A467B6D1B78DB00134402335B007A6855
:102D00001268134403F580631B88C3F30903A7F813
:102D100040307B6D9A69B7F840309A4207D97B6D95
:102D20009A69B7F84030D21A7B6D9A6102E07B6DE8
:102D300000229A617B6D9B69002B06D17B6D1B780D
:102D40001946786809F0C3FE1BE07B6D5A69B7F835
:102D500040301A447B6D5A617B6DDA69B7F84030B8
:102D60001A447B6DDA617B681B68796D184602F046
:102D7000DBFF06E0B7F84A301A46796D786800F054
:102D80001BF97B681B68B3F844309BB21BB2002B65
:102D9000FFF63BAC002318465837BD4680BD80B5D2
:102DA00088B000AFF860B9601346FB80FB8803F47D
:102DB0008043002B7ED0FB681B68B3F850309BB279
:102DC0001A46BB681B78DB00134402335B00FA68C9
:102DD0001268134403F580631B88C3F309037B83E4
:102DE000BB689A697B8B9A4206D3BB689A697B8BD6
:102DF000D21ABB689A6102E0BB6800229A61BB6884
:102E00009B69002B23D1FB681B681A46BB681B78A3
:102E10009B0013441B889BB223F4804323F0700370
:102E20003B833B8B83F400533B83FB681B681A4650
:102E3000BB681B789B001A443B8B43F07F4343F4F1
:102E40007F0343F4004343F080039BB21380FB886D
:102E500003F04003002B1FD0FB681B681A46BB68B9
:102E60001B789B0013441B889BB223F4E04323F0A0
:102E70007003FB82FB681B681A46BB681B789B00CB
:102E80001A44FB8A43F07F4343F47F0343F4004337
:102E900043F0C0039BB213807B8B002B00F0878034
:102EA000FB681868BB685969BB681A897B8B04F09A
:102EB0006FFC7CE0FB681B68B3F850309BB21A468D
:102EC000BB681B78DB00134406335B00FA681268AA
:102ED000134403F580631B88C3F309037B83BB683A
:102EE0009A697B8B9A4206D3BB689A697B8BD21A0C
:102EF000BB689A6102E0BB6800229A61BB689B696B
:102F0000002B23D1FB681B681A46BB681B789B000B
:102F100013441B889BB223F4804323F07003FB838C
:102F2000FB8B83F40053FB83FB681B681A46BB686A
:102F30001B789B001A44FB8B43F07F4343F47F03D1
:102F400043F4004343F080039BB21380FB8803F0FB
:102F50004003002B1FD1FB681B681A46BB681B7817
:102F60009B0013441B889BB223F4E04323F07003BF
:102F7000BB83FB681B681A46BB681B789B001A441E
:102F8000BB8B43F07F4343F47F0343F4004343F0A0
:102F9000C0039BB213807B8B002B08D0FB681868A2
:102FA000BB685969BB685A897B8B04F0F1FB7B8B4A
:102FB00018462037BD4680BD80B5A4B000AFF8608C
:102FC000B9601346FB80FB8803F04003002B00F040
:102FD000DD81FB681B68B3F850309BB21A46BB68B2
:102FE0001B78DB00134402335B00FA681268134459
:102FF00003F580631B88C3F30903A7F88630BB6819
:103000009A69B7F886309A4207D9BB689A69B7F8C7
:103010008630D21ABB689A6102E0BB6800229A61CE
:10302000BB689B69002B40F0B980BB685B78002BC4
:1030300026D1FB681B68FB62FB681B68B3F8503045
:103040009BB21A46FB6A1344FB62BB681B781A01E9
:10305000FB6A134403F20443BB62BB6A1B889BB246
:10306000C3F309039AB2BB6A1A80BB6A1B889BB27E
:103070006FEA43436FEA53439AB2BB6A1A801AE07D
:10308000BB685B78012B16D1FB681B687B63FB6810
:103090001B68B3F850309BB21A467B6B13447B63BA
:1030A000BB681B781A017B6B134403F204433B6338
:1030B0003B6B00221A80FB681B687B62BB685B78F5
:1030C000002B26D1FB681B68FB61FB681B68B3F80B
:1030D00050309BB21A46FB691344FB61BB681B78F6
:1030E0001A01FB69134403F20C43BB61BB691B88E3
:1030F0009BB2C3F309039AB2BB691A80BB691B88F0
:103100009BB26FEA43436FEA53439AB2BB691A809A
:1031100017E0BB685B78012B13D1FB681B68B3F821
:1031200050309BB21A467B6A13447B62BB681B78A3
:103130001A017B6A134403F20C433B623B6A002290
:103140001A80BB681B781946F86809F0C0FCFB8838
:1031500003F48043002B00F0FC82FB681B681A46D6
:10316000BB681B789B0013441B889BB223F4E0438D
:1031700023F07003FB82FB681B681A46BB681B7850
:103180009B001A44FB8A43F07F4343F47F0343F4DC
:10319000404343F080039BB21380DAE2FB8803F4E0
:1031A0008043002B21D0FB681B681A46BB681B7844
:1031B0009B0013441B889BB223F4E04323F070036D
:1031C000A7F88A30FB681B681A46BB681B789B000F
:1031D0001A44B7F88A3043F07F4343F47F0343F443
:1031E000404343F080039BB21380BB6893F82430C4
:1031F000012B40F0AE82BB685A69B7F886301A449A
:10320000BB685A61BB68DA69B7F886301A44BB6894
:10321000DA61BB681A6ABB681B699A420BD3BB6848
:103220001B69C7F88C30BB681A6AD7F88C30D21A81
:10323000BB681A6217E0BB681B6A002B08D1B7F89D
:103240008630C7F88C30BB68002283F824200AE05F
:10325000BB68002283F82420BB681B6AC7F88C3047
:10326000BB6800221A62BB685B78002B65D1FB68E3
:103270001B68FB63FB681B68B3F850309BB21A46AF
:10328000FB6B1344FB63BB681B781A01FB6B134495
:1032900003F20443BB63BB6B1B889BB2C3F30903FC
:1032A0009AB2BB6B1A80D7F88C303E2B1DD9D7F859
:1032B0008C305B09BB64D7F88C3003F01F03002B04
:1032C00002D1BB6C013BBB64BB6B1B889AB2BB6C6D
:1032D0009BB29B029BB213439BB26FEA43436FEADC
:1032E00053439AB2BB6B1A8044E0D7F88C30002B62
:1032F0000AD1BB6B1B889BB26FEA43436FEA53430F
:103300009AB2BB6B1A8035E0D7F88C305B08BB648F
:10331000D7F88C3003F00103002B02D0BB6C0133D3
:10332000BB64BB6B1B889AB2BB6C9BB29B029BB20B
:1033300013439AB2BB6B1A801CE0BB685B78012B0D
:1033400018D1FB681B687B64FB681B68B3F85030BE
:103350009BB21A467B6C13447B64BB681B781A01D2
:103360007B6C134403F204433B64D7F88C309AB26D
:103370003B6C1A80FB681868BB685969BB681A897E
:10338000D7F88C309BB204F0BEF9E2E1FB681B6811
:10339000B3F850309BB21A46BB681B78DB0013446D
:1033A00006335B00FA681268134403F580631B88D8
:1033B000C3F30903A7F88630BB689A69B7F886306B
:1033C0009A4207D3BB689A69B7F88630D21ABB68AD
:1033D0009A6102E0BB6800229A61BB689B69002B7E
:1033E00040F0C080BB685B78002B26D1FB681B686F
:1033F000FB67FB681B68B3F850309BB21A46FB6F43
:103400001344FB67BB681B781A01FB6F134403F27C
:103410000443BB67BB6F1B889BB2C3F309039AB21B
:10342000BB6F1A80BB6F1B889BB26FEA43436FEA86
:1034300053439AB2BB6F1A801AE0BB685B78012BCA
:1034400016D1FB681B687B66FB681B68B3F85030BD
:103450009BB21A467B6E13447B66BB681B781A01CD
:103460007B6E134403F204433B663B6E00221A80DA
:10347000FB681B687B67BB685B78002B2BD1FB6804
:103480001B68FB66FB681B68B3F850309BB21A469A
:10349000FB6E1344FB66BB681B781A01FB6E13447A
:1034A00003F20C43C7F88030D7F880301B889BB2FA
:1034B000C3F309039AB2D7F880301A80D7F8803066
:1034C0001B889BB26FEA43436FEA53439AB2D7F823
:1034D00080301A8017E0BB685B78012B13D1FB6842
:1034E0001B68B3F850309BB21A467B6F13447B675E
:1034F000BB681B781A017B6F134403F20C433B67D4
:103500003B6F00221A80BB681B781946F86809F0E7
:10351000DEFAFB8803F48043002B40F01A81FB683D
:103520001B681A46BB681B789B0013441B889BB220
:1035300023F4E04323F07003A7F88830FB681B688E
:103540001A46BB681B789B001A44B7F8883043F0D2
:103550007F4343F47F0343F4404343F080039BB233
:103560001380F6E0FB8803F48043002B21D1FB6835
:103570001B681A46BB681B789B0013441B889BB2D0
:1035800023F4E04323F07003A7F84E30FB681B6878
:103590001A46BB681B789B001A44B7F84E3043F0BC
:1035A0007F4343F47F0343F4404343F080039BB2E3
:1035B0001380BB6893F82430012B40F0CA80BB68AD
:1035C0005A69B7F886301A44BB685A61BB68DA6931
:1035D000B7F886301A44BB68DA61BB681A6ABB6800
:1035E0001B699A420BD3BB681B69C7F88C30BB6858
:1035F0001A6AD7F88C30D21ABB681A6217E0BB6817
:103600001B6A002B08D1B7F88630C7F88C30BB682E
:10361000002283F824200AE0BB681B6AC7F88C30BC
:10362000BB6800221A62BB68002283F82420FB6872
:103630001B687B65BB685B78002B65D1FB681B68EA
:10364000FB65FB681B68B3F850309BB21A46FB6DF4
:103650001344FB65BB681B781A01FB6D134403F22E
:103660000C43BB65BB6D1B889BB2C3F309039AB2C5
:10367000BB6D1A80D7F88C303E2B1DD9D7F88C3013
:103680005B09BB66D7F88C3003F01F03002B02D117
:10369000BB6E013BBB66BB6D1B889AB2BB6E9BB217
:1036A0009B029BB213439BB26FEA43436FEA5343BF
:1036B0009AB2BB6D1A8041E0D7F88C30002B0AD14A
:1036C000BB6D1B889BB26FEA43436FEA53439AB2C8
:1036D000BB6D1A8032E0D7F88C305B08BB66D7F838
:1036E0008C3003F00103002B02D0BB6E0133BB66AC
:1036F000BB6D1B889AB2BB6E9BB29B029BB21343FD
:103700009AB2BB6D1A8019E0BB685B78012B15D1AA
:10371000FB681B68B3F850309BB21A467B6D1344AC
:103720007B65BB681B781A017B6D134403F20C4365
:103730003B65D7F88C309AB23B6D1A80FB681868ED
:10374000BB685969BB685A89D7F88C309BB203F0C3
:10375000DAFFFB681B681A46BB681B789B001344A2
:103760001B889BB223F4E04323F04003BB82BB8A57
:1037700083F01003BB82BB8A83F02003BB82FB680B
:103780001B681A46BB681B789B001A44BB8A43F02F
:103790007F4343F47F0343F4004343F080039BB231
:1037A0001380002318469037BD4680BD80B487B093
:1037B00000AFF8607B600B467B8113463B817B89C1
:1037C00003F080039BB2002B0BD07B8903F0070230
:1037D00013469B001344DB001033FA6813447B61EB
:1037E00009E07A8913469B001344DB0003F5A873B4
:1037F000FA6813447B613B89002B07D17B69002267
:103800001A737B689AB27B69DA800BE07B690122CC
:103810001A737B689AB27B691A817B681B0C9AB217
:103820007B695A81002318461C37BD4680BC70470F
:1038300080B586B000AF78607B68002B01D1012392
:1038400072E27B681B6803F00103002B00F08780A5
:10385000924B5B6803F00C03042B0CD08F4B5B681E
:1038600003F00C03082B12D18C4B5B6803F48033FC
:10387000B3F5803F0BD1894B1B6803F40033002B59
:103880006CD07B685B68002B68D101234CE27B68BD
:103890005B68B3F5803F06D1804B1B687F4A43F4D9
:1038A000803313602EE07B685B68002B0CD17B4B70
:1038B0001B687A4A23F480331360784B1B68774A7D
:1038C00023F4802313601DE07B685B68B3F5A02FB1
:1038D0000CD1724B1B68714A43F4802313606F4B09
:1038E0001B686E4A43F4803313600BE06B4B1B681C
:1038F0006A4A23F480331360684B1B68674A23F4D9
:10390000802313607B685B68002B13D0FDF79AFA65
:10391000386108E0FDF796FA02463B69D31A642B3A
:1039200001D9032300E25D4B1B6803F40033002B35
:10393000F0D014E0FDF786FA386108E0FDF782FA6E
:1039400002463B69D31A642B01D90323ECE1534BA4
:103950001B6803F40033002BF0D100E000BF7B684C
:103960001B6803F00203002B63D04C4B5B6803F031
:103970000C03002B0BD0494B5B6803F00C03082BA6
:103980001CD1464B5B6803F48033002B16D1434BAC
:103990001B6803F00203002B05D07B681B69012B19
:1039A00001D00123C0E13D4B1B6823F0F8027B6886
:1039B0005B69DB00394913430B603AE07B681B69A4
:1039C000002B20D0364B01221A60FDF73BFA3861FC
:1039D00008E0FDF737FA02463B69D31A022B01D9FA
:1039E0000323A1E12D4B1B6803F00203002BF0D051
:1039F0002A4B1B6823F0F8027B685B69DB002749D0
:103A000013430B6015E0264B00221A60FDF71AFAEB
:103A1000386108E0FDF716FA02463B69D31A022B1B
:103A200001D9032380E11D4B1B6803F00203002B27
:103A3000F0D17B681B6803F00803002B3AD07B6849
:103A40009B69002B19D0174B01221A60FDF7FAF978
:103A5000386108E0FDF7F6F902463B69D31A022BFC
:103A600001D9032360E10D4B5B6A03F00203002BD5
:103A7000F0D0012000F038FB1CE00A4B00221A6055
:103A8000FDF7E0F938610FE0FDF7DCF902463B692C
:103A9000D31A022B08D9032346E100BF00100240CD
:103AA0000000424280044242924B5B6A03F00203F0
:103AB000002BE9D17B681B6803F00403002B00F0A6
:103AC000A6800023FB758B4BDB6903F08053002B32
:103AD0000DD1884BDB69874A43F08053D361854B16
:103AE000DB6903F08053BB60BB680123FB75824B2D
:103AF0001B6803F48073002B18D17F4B1B687E4A30
:103B000043F480731360FDF79DF9386108E0FDF719
:103B100099F902463B69D31A642B01D9032303E1C7
:103B2000754B1B6803F48073002BF0D07B68DB6857
:103B3000012B06D16F4B1B6A6E4A43F001031362DF
:103B40002DE07B68DB68002B0CD16A4B1B6A694A4D
:103B500023F001031362674B1B6A664A23F00403D8
:103B600013621CE07B68DB68052B0CD1614B1B6A80
:103B7000604A43F0040313625E4B1B6A5D4A43F0E4
:103B8000010313620BE05B4B1B6A5A4A23F00103EB
:103B90001362584B1B6A574A23F0040313627B6875
:103BA000DB68002B15D0FDF74DF938610AE0FDF711
:103BB00049F902463B69D31A41F28832934201D94E
:103BC0000323B1E04B4B1B6A03F00203002BEED042
:103BD00014E0FDF737F938610AE0FDF733F90246E2
:103BE0003B69D31A41F28832934201D903239BE007
:103BF000404B1B6A03F00203002BEED1FB7D012B2F
:103C000005D13C4BDB693B4A23F08053D3617B6891
:103C1000DB69002B00F08780364B5B6803F00C03F8
:103C2000082B61D07B68DB69022B46D1334B002225
:103C30001A60FDF707F9386108E0FDF703F902465D
:103C40003B69D31A022B01D903236DE0294B1B6872
:103C500003F00073002BF0D17B681B6AB3F5803F43
:103C600008D1244B5B6823F400327B689B682149B0
:103C700013434B601F4B5B6823F474127B68196A13
:103C80007B685B6A0B431B4913434B601B4B012250
:103C90001A60FDF7D7F8386108E0FDF7D3F802465F
:103CA0003B69D31A022B01D903233DE0114B1B685A
:103CB00003F00073002BF0D035E0104B00221A60A7
:103CC000FDF7C0F8386108E0FDF7BCF802463B6933
:103CD000D31A022B01D9032326E0064B1B6803F0FD
:103CE0000073002BF0D11EE07B68DB69012B07D14C
:103CF000012319E0001002400070004060004242C1
:103D00000B4B5B68FB60FB6803F480327B681B6ACB
:103D10009A4206D1FB6803F470127B685B6A9A4290
:103D200001D0012300E0002318461837BD4680BDAE
:103D30000010024080B584B000AF786039607B68C5
:103D4000002B01D10123D0E06A4B1B6803F007036D
:103D50003A689A4210D9674B1B6823F007026549FD
:103D60003B6813430B60634B1B6803F007033A681F
:103D70009A4201D00123B8E07B681B6803F002037C
:103D8000002B20D07B681B6803F00403002B05D0B8
:103D9000594B5B68584A43F4E06353607B681B6887
:103DA00003F00803002B05D0534B5B68524A43F4E1
:103DB00060535360504B5B6823F0F0027B689B6854
:103DC0004D4913434B607B681B6803F00103002BD4
:103DD00040D07B685B68012B07D1474B1B6803F41D
:103DE0000033002B15D101237FE07B685B68022B39
:103DF00007D1414B1B6803F00073002B09D101234D
:103E000073E03D4B1B6803F00203002B01D101233B
:103E10006BE0394B5B6823F003027B685B683649D3
:103E200013434B60FDF70EF8F8600AE0FDF70AF85F
:103E30000246FB68D31A41F28832934201D9032328
:103E400053E02D4B5B6803F00C027B685B689B00C2
:103E50009A42EBD1274B1B6803F007033A689A425A
:103E600010D2244B1B6823F0070222493B681343FE
:103E70000B60204B1B6803F007033A689A4201D09D
:103E8000012332E07B681B6803F00403002B08D099
:103E9000194B5B6823F4E0627B68DB6816491343C7
:103EA0004B607B681B6803F00803002B09D0124BA2
:103EB0005B6823F460527B681B69DB000E49134387
:103EC0004B6000F059F802460B4B5B681B0903F08E
:103ED0000F030A49CB5C22FA03F3094A1360094B2A
:103EE0001B681846FCF780FE002318461037BD46B5
:103EF00080BD00BF0020024000100240E8E0000842
:103F0000000000200400002080B58AB000AFF860F7
:103F1000B9607A6007F1180300221A605A609A604B
:103F2000DA600223FB6103237B6200233B624FF4D0
:103F30008073BB610E4B9B690D4A43F00403936190
:103F40000B4B9B6903F004037B617B6907F118034A
:103F500019460848FDF714FC054B5B6823F0E06246
:103F60000349BB6813434B6000BF2837BD4680BD83
:103F7000001002400008014080B487B000AF002369
:103F8000FB600023BB6000237B6100237B60002378
:103F90003B611E4B5B68FB60FB6803F00C03042B6A
:103FA00002D0082B03D027E0194B3B6127E0FB68C8
:103FB0009B0C03F00F03174AD35C7B60FB6803F490
:103FC0008033002B10D0114B5B685B0C03F00103B6
:103FD000114AD35CBB607B680D4A03FB02F2BB68ED
:103FE000B2FBF3F37B6104E07B680C4A02FB03F352
:103FF0007B617B693B6102E0094B3B6100BF3B6930
:1040000018461C37BD4680BC704700BF00100240F8
:10401000001BB70000E1000810E1000800093D00A6
:1040200000127A0080B400AF024B1B681846BD46F0
:1040300080BC70470000002080B500AFFFF7F2FFA2
:104040000246054B5B681B0A03F007030349CB5C80
:1040500022FA03F3184680BD00100240F8E0000881
:1040600080B500AFFFF7DEFF0246054B5B68DB0A59
:1040700003F007030349CB5C22FA03F3184680BD23
:1040800000100240F8E0000880B483B000AF786010
:1040900039607B680F221A60114B5B6803F00302E2
:1040A0007B685A600E4B5B6803F0F0027B689A6095
:1040B0000B4B5B6803F4E0627B68DA60084B5B687B
:1040C000DB0803F4E0627B681A61064B1B6803F0AF
:1040D00007023B681A6000BF0C37BD4680BC7047C2
:1040E000001002400020024080B485B000AF78602C
:1040F0000A4B1B680A4AA2FB03235B0A7A6802FB8D
:1041000003F3FB6000BFFB685A1EFA60002BF9D175
:1041100000BF00BF1437BD4680BC704700000020C0
:10412000D34D621080B586B000AF786000233B614C
:104130000023FB607B681B6803F00103002B7DD02C
:104140000023FB754F4BDB6903F08053002B0DD12F
:104150004C4BDB694B4A43F08053D361494BDB69DD
:1041600003F08053BB60BB680123FB75464B1B68A3
:1041700003F48073002B18D1434B1B68424A43F46D
:1041800080731360FCF75EFE386108E0FCF75AFEAE
:1041900002463B69D31A642B01D903236DE03A4BE5
:1041A0001B6803F48073002BF0D0364B1B6A03F4BA
:1041B0004073FB60FB68002B2ED07B685B6803F4C8
:1041C0004073FA689A4227D02E4B1B6A23F440733F
:1041D000FB602E4B01221A602C4B00221A60294AE8
:1041E000FB681362FB6803F00103002B14D0FCF79B
:1041F00029FE38610AE0FCF725FE02463B69D31A26
:1042000041F28832934201D9032336E01D4B1B6AE9
:1042100003F00203002BEED01A4B1B6A23F440720A
:104220007B685B68174913430B62FB7D012B05D14B
:10423000144BDB69134A23F08053D3617B681B68FE
:1042400003F00203002B08D00E4B5B6823F44042BE
:104250007B689B680B4913434B607B681B6803F0CA
:104260001003002B08D0074B5B6823F480027B68A7
:10427000DB68044913434B60002318461837BD46DA
:1042800080BD00BF00100240007000404004424268
:1042900080B582B000AF78607B68002B01D101232C
:1042A00041E07B6893F83D30DBB2002B06D17B68A0
:1042B000002283F83C20786800F039F87B680222FD
:1042C00083F83D207B681A687B68043319461046E2
:1042D00000F09CF97B68012283F846207B6801226C
:1042E00083F83E207B68012283F83F207B6801220F
:1042F00083F840207B68012283F841207B680122FB
:1043000083F842207B68012283F843207B680122E6
:1043100083F844207B68012283F845207B680122D2
:1043200083F83D20002318460837BD4680BD80B481
:1043300083B000AF786000BF0C37BD4680BC7047CB
:1043400080B485B000AF78607B6893F83D30DBB215
:10435000012B01D001233AE07B68022283F83D2043
:104360007B681B68DA687B681B6842F00102DA60D0
:104370007B681B68184A93420ED07B681B68B3F1B8
:10438000804F09D07B681B68144A934204D07B6835
:104390001B68134A934211D17B681B689B6803F02A
:1043A0000703FB60FB68062B10D07B681B681A684C
:1043B0007B681B6842F001021A6007E07B681B689B
:1043C0001A687B681B6842F001021A6000231846D5
:1043D0001437BD4680BC7047002C014000040040EB
:1043E0000008004080B584B000AF78607B681B682F
:1043F000DB68FB607B681B681B69BB60BB6803F004
:104400000203002B20D0FB6803F00203002B1BD01B
:104410007B681B686FF002021A617B6801221A77C1
:104420007B681B689B6903F00303002B03D078684B
:1044300000F0D1F805E0786800F0C4F8786800F082
:10444000D3F87B6800221A77BB6803F00403002BC3
:1044500020D0FB6803F00403002B1BD07B681B6893
:104460006FF004021A617B6802221A777B681B686E
:104470009B6903F44073002B03D0786800F0ABF81D
:1044800005E0786800F09EF8786800F0ADF87B6889
:1044900000221A77BB6803F00803002B20D0FB68CA
:1044A00003F00803002B1BD07B681B686FF0080229
:1044B0001A617B6804221A777B681B68DB6903F04A
:1044C0000303002B03D0786800F085F805E07868D6
:1044D00000F078F8786800F087F87B6800221A7797
:1044E000BB6803F01003002B20D0FB6803F010031F
:1044F000002B1BD07B681B686FF010021A617B6871
:1045000008221A777B681B68DB6903F44073002B71
:1045100003D0786800F05FF805E0786800F052F8A2
:10452000786800F061F87B6800221A77BB6803F0B6
:104530000103002B0CD0FB6803F00103002B07D014
:104540007B681B686FF001021A617868FCF7D0F98C
:10455000BB6803F08003002B0CD0FB6803F08003E2
:10456000002B07D07B681B686FF080021A617868A7
:1045700000F0C3F8BB6803F04003002B0CD0FB68CD
:1045800003F04003002B07D07B681B686FF04002EC
:104590001A61786800F031F8BB6803F02003002B43
:1045A0000CD0FB6803F02003002B07D07B681B684E
:1045B0006FF020021A61786800F096F800BF10379B
:1045C000BD4680BD80B483B000AF786000BF0C37BB
:1045D000BD4680BC704780B483B000AF786000BF38
:1045E0000C37BD4680BC704780B483B000AF7860A4
:1045F00000BF0C37BD4680BC704780B483B000AFAD
:10460000786000BF0C37BD4680BC704780B485B071
:1046100000AF786039607B681B68FB607B682F4A5D
:1046200093420BD07B68B3F1804F07D07B682C4A54
:10463000934203D07B682B4A934208D1FB6823F056
:104640007003FB603B685B68FA681343FB607B6840
:10465000224A93420BD07B68B3F1804F07D07B682E
:104660001F4A934203D07B681E4A934208D1FB68DD
:1046700023F44073FB603B68DB68FA681343FB601C
:10468000FB6823F080023B685B691343FB607B6837
:10469000FA681A603B689A687B68DA623B681A6855
:1046A0007B689A627B680D4A934203D13B681A6922
:1046B0007B681A637B6801225A617B681B6903F07F
:1046C0000103002B05D07B681B6923F001027B6886
:1046D0001A6100BF1437BD4680BC7047002C0140F2
:1046E000000400400008004080B483B000AF786050
:1046F00000BF0C37BD4680BC704780B483B000AFAC
:10470000786000BF0C37BD4680BC704780B582B072
:1047100000AF78607B68002B01D1012342E07B6809
:1047200093F84130DBB2002B06D17B68002283F87E
:1047300040207868FCF7D4F97B68242283F8412074
:104740007B681B68DA687B681B6822F40052DA60B9
:10475000786800F049FC7B681B681A697B681B68F5
:1047600022F490421A617B681B685A697B681B6857
:1047700022F02A025A617B681B68DA687B681B6832
:1047800042F40052DA607B6800225A647B6820227F
:1047900083F841207B68202283F842207B68002236
:1047A0005A63002318460837BD4680BD80B58AB0DD
:1047B00002AFF860B9603B601346FB8000237B6169
:1047C000FB6893F84130DBB2202B75D1BB68002B1E
:1047D00002D0FB88002B01D101236EE0FB68002290
:1047E0005A64FB68212283F84120FCF72BFB786197
:1047F000FB68FA889A84FB68FA88DA84FB689B680D
:10480000B3F5805F08D1FB681B69002B04D100233E
:10481000FB61BB68BB6103E0BB68FB610023BB615C
:104820002EE03B6800937B6900228021F86800F04D
:104830005DFA0346002B05D0FB68202283F8412057
:1048400003233AE0FB69002B0BD1BB691B881A4696
:10485000FB681B68C2F308025A60BB690233BB6184
:1048600007E0FB691A78FB681B685A60FB69013333
:10487000FB61FB68DB8C9BB2013B9AB2FB68DA847C
:10488000FB68DB8C9BB2002BCBD13B6800937B6930
:1048900000224021F86800F029FA0346002B05D0D9
:1048A000FB68202283F84120032306E0FB682022D6
:1048B00083F84120002300E0022318462037BD463C
:1048C00080BD000080B58CB000AFF860B9601346C1
:1048D000FB80FB6893F84130DBB2202B56D1BB68DC
:1048E000002B02D0FB88002B01D101234FE0BA68D6
:1048F000FB681A62FB68FA889A84FB68FA88DA8493
:10490000FB6800225A64FB68212283F84120FB687F
:104910009B6B214A9A62FB689B6B204ADA62FB68B8
:104920009B6B1F4A1A63FB689B6B00225A6307F15B
:104930000803FB62FB68986BFB6A1968FB681B68DD
:1049400004331A46FB88FCF78EFEFB681B686FF089
:1049500040021A60FB681B681433BB61BB6953E8F3
:10496000003F7B617B6943F08003BB62FB681B688F
:104970001433BA6A7A623B62396A7A6A41E8002380
:10498000FB61FB69002BE5D1002300E00223184600
:104990003037BD4680BD00BF3B4A0008D54A0008FD
:1049A000594C000880B584B000AFF860B960134678
:1049B000FB80FB6893F84230DBB2202B12D1BB683E
:1049C000002B02D0FB88002B01D101230BE0FB68F8
:1049D00000221A63FB881A46B968F86800F0E0F90B
:1049E000034600E0022318461037BD4680BD80B460
:1049F00083B000AF786000BF0C37BD4680BC704705
:104A000080B483B000AF786000BF0C37BD4680BC77
:104A1000704780B483B000AF786000BF0C37BD46EC
:104A200080BC704780B483B000AF78600B467B8059
:104A300000BF0C37BD4680BC704780B590B000AF5A
:104A400078607B685B6AFB637B681B681B6803F0AC
:104A50002003002B37D1FB6B0022DA84FB6B1B6831
:104A600014337B627B6A53E8003F3B623B6A23F06E
:104A70008003BB63FB6B1B681433BA6B3A63FB6246
:104A8000F96A3A6B41E80023BB62BB6A002BE5D1AF
:104A9000FB6B1B680C333B613B6953E8003FFB60D9
:104AA000FB6843F040037B63FB6B1B680C337A6B42
:104AB000FA61BB61B969FA6941E800237B617B69EE
:104AC000002BE5D102E0F86B08F0E2FA00BF4037B6
:104AD000BD4680BD80B584B000AF78607B685B6AFE
:104AE000FB60F868FFF783FF00BF1037BD4680BD4D
:104AF00080B59CB000AF78607B685B6AFB667B68C2
:104B00001B681B6803F02003002B72D1FB6E002290
:104B1000DA85FB6E1B680C33FB64FB6C53E8003FCB
:104B2000BB64BB6C23F48073BB66FB6E1B680C33E9
:104B3000BA6EBA657B65796DBA6D41E800233B6555
:104B40003B6D002BE5D1FB6E1B681433BB63BB6B65
:104B500053E8003F7B637B6B23F001037B66FB6EB6
:104B60001B6814337A6E7A643B64396C7A6C41E862
:104B70000023FB63FB6B002BE5D1FB6E1B6814333A
:104B80007B627B6A53E8003F3B623B6A23F0400351
:104B90003B66FB6E1B6814333A6E3A63FB62F96A3C
:104BA0003A6B41E80023BB62BB6A002BE5D1FB6E88
:104BB000202283F84220FB6E1B6B012B19D1FB6E68
:104BC0001B680C333B613B6953E8003FFB60FB68AB
:104BD00023F01003FB65FB6E1B680C33FA6DFA6162
:104BE000BB61B969FA6941E800237B617B69002BED
:104BF000E5D1FB6E00225A63FB6E1B6B012B06D1C5
:104C0000FB6E9B8D1946F86EFFF70CFF02E0F86E05
:104C100008F024FA00BF7037BD4680BD80B584B06F
:104C200000AF78607B685B6AFB60FB6801225A63B7
:104C3000FB681B6B012B08D1FB689B8D5B089BB24B
:104C40001946F868FFF7EEFE02E0F868FFF7D8FEB5
:104C500000BF1037BD4680BD80B584B000AF78601E
:104C60000023FB607B685B6ABB60BB681B685B6999
:104C700003F08003002B14BF01230023DBB2FB6091
:104C8000BB6893F84130DBB2212B08D1FB68002BC5
:104C900005D0BB680022DA84B86800F01BF9BB6855
:104CA0001B685B6903F04003002B14BF0123002342
:104CB000DBB2FB60BB6893F84230DBB2222B08D139
:104CC000FB68002B05D0BB680022DA85B86800F0CD
:104CD00028F9BB685B6C43F01002BB685A64B86883
:104CE000FFF797FE00BF1037BD4680BD80B586B088
:104CF00000AFF860B9603B601346FB713BE03B6A74
:104D0000B3F1FF3F37D0FCF79DF802463B68D31A5A
:104D10003A6A9A4202D33B6A002B01D103233AE05C
:104D2000FB681B68DB6803F00403002B23D0BB681F
:104D3000802B20D0BB68402B1DD0FB681B681B68F4
:104D400003F00803082B16D100237B61FB681B6866
:104D50001B687B61FB681B685B687B617B69F8682B
:104D600000F0DFF8FB6808225A64FB68002283F831
:104D7000402001230FE0FB681B681A68BB681340E2
:104D8000BA689A420CBF01230023DBB21A46FB79B2
:104D90009A42B4D0002318461837BD4680BD0000A3
:104DA00080B598B000AFF860B9601346FB80BA6870
:104DB000FB689A62FB68FA889A85FB6800225A644D
:104DC000FB68222283F84220FB68DB6B3E4A9A6232
:104DD000FB68DB6B3D4ADA62FB68DB6B3C4A1A63BB
:104DE000FB68DB6B00225A6307F10803FB65FB6875
:104DF000D86BFB681B6804331946FB6D1A68FB8887
:104E0000FCF731FC00233B61FB681B681B683B61BE
:104E1000FB681B685B683B613B69FB681B69002B97
:104E200019D0FB681B680C333B643B6C53E8003FB4
:104E3000FB63FB6B43F48073BB65FB681B680C333F
:104E4000BA6DFA64BB64B96CFA6C41E800237B6408
:104E50007B6C002BE5D1FB681B681433FB62FB6A9B
:104E600053E8003FBB62BB6A43F001037B65FB680C
:104E70001B6814337A6DBA637B63796BBA6B41E854
:104E800000233B633B6B002BE5D1FB681B681433AD
:104E9000BB61BB6953E8003F7B617B6943F0400322
:104EA0003B65FB681B6814333A6D7A623B62396A72
:104EB0007A6A41E80023FB61FB69002BE5D10023FE
:104EC00018466037BD4680BDF14A00081D4C0008F9
:104ED000594C000880B489B000AF78607B681B68CB
:104EE0000C33FB60FB6853E8003FBB60BB6823F0FA
:104EF000C003FB617B681B680C33FA69BA617B6194
:104F00007969BA6941E800233B613B69002BE5D12F
:104F10007B68202283F8412000BF2437BD4680BC37
:104F2000704780B495B000AF78607B681B680C3325
:104F30007B637B6B53E8003F3B633B6B23F49073D5
:104F4000FB647B681B680C33FA6C3A64FB63F96B97
:104F50003A6C41E80023BB63BB6B002BE5D17B6857
:104F60001B6814333B623B6A53E8003FFB61FB69FB
:104F700023F00103BB647B681B681433BA6CFA62CC
:104F8000BB62B96AFA6A41E800237B627B6A002B44
:104F9000E5D17B681B6B012B19D17B681B680C3337
:104FA000FB60FB6853E8003FBB60BB6823F0100365
:104FB0007B647B681B680C337A6CBA617B617969AE
:104FC000BA6941E800233B613B69002BE5D17B686E
:104FD000202283F842207B6800221A6300BF5437E6
:104FE000BD4680BC7047000080B584B000AF7860DB
:104FF0007B681B681B6923F440517B68DA687B6817
:105000001B680A431A617B689A687B681B691A43AC
:105010007B685B691343BB607B681B68DB6823F4B8
:10502000B05323F00C037A681268B9680B43D3605D
:105030007B681B685B6923F440717B689A697B68B5
:105040001B680A435A617B681B682C4A934203D150
:10505000FFF706F8F86002E0FEF7EEFFF860FA6886
:1050600013469B0013449A001A447B685B689B00BC
:10507000B2FBF3F3224AA2FB03235B091901FA688E
:1050800013469B0013449A001A447B685B689B009C
:10509000B2FBF3F21A4BA3FB02035B09642000FB93
:1050A00003F3D31A1B013233154AA2FB03235B0916
:1050B00003F0F0031944FA6813469B0013449A0066
:1050C0001A447B685B689B00B2FBF3F20C4BA3FBBA
:1050D00002035B09642000FB03F3D31A1B01323384
:1050E000074AA2FB03235B0903F00F027B681B68DE
:1050F0000A449A6000BF1037BD4680BD00380140A9
:105100001F85EB5180B485B000AFF860384680E869
:105110000E00002318461437BD4680BC704780B48B
:1051200085B000AF78607B680022A3F844204FF47C
:105130003F43FB60FB689AB27B68A3F840200023E2
:1051400018461437BD4680BC704780B485B000AFA8
:1051500078604FF43F43FB607B68B3F840309AB20D
:10516000FB689BB2DB439BB213409AB27B68A3F807
:105170004020002318461437BD4680BC704780B4D9
:1051800083B000AF78600B46FB70002318460C37E5
:10519000BD4680BC704780B485B000AFF86038462B
:1051A00080E80E00FB680122A3F84020FB68002283
:1051B000A3F84020FB680022A3F84420FB680022EB
:1051C000A3F85020002318461437BD4680BC704712
:1051D00080B49DB000AF78603960002387F86F30ED
:1051E0007A683B681B789B0013441B889BB223F4AE
:1051F000EC4323F07003A7F86C303B68DB78032B9B
:105200001FD801A252F823F01952000835520008A5
:105210004B52000827520008B7F86C3043F4007373
:10522000A7F86C3012E0B7F86C3043F4C063A7F80D
:105230006C300BE0B7F86C3043F48063A7F86C3047
:1052400004E0012387F86F3000E000BF7A683B6814
:105250001B789B001A44B7F86C3043F07F4343F44B
:105260007F0343F4004343F080039BB213807A68CA
:105270003B681B789B0013441B889BB223F4E043DC
:1052800023F070039BB23A6812781343A7F8663094
:105290007A683B681B789B001A44B7F8663043F085
:1052A0007F4343F47F0343F4004343F080039BB206
:1052B00013803B681B7B002B40F078813B685B7858
:1052C000002B00F084807B68BB617B68B3F85030B2
:1052D0009BB21A46BB691344BB613B681B781A0139
:1052E000BB69134403F580637B613B68DB885B0823
:1052F0009BB25B009AB27B691A807A683B681B7824
:105300009B0013441B887B827B8A03F04003002BA5
:105310001BD07A683B681B789B0013441B889BB2A8
:1053200023F4E04323F070033B827A683B681B78E8
:105330009B001A443B8A43F07F4343F47F0343F4CA
:10534000004343F0C0039BB213803B68DB78012B22
:1053500020D07A683B681B789B0013441B889BB263
:1053600023F4E04323F04003BB81BB8983F0200397
:10537000BB817A683B681B789B001A44BB8943F069
:105380007F4343F47F0343F4004343F080039BB225
:105390001380D5E27A683B681B789B0013441B8816
:1053A0009BB223F4E04323F04003FB817A683B681F
:1053B0001B789B001A44FB8943F07F4343F47F032F
:1053C00043F4004343F080039BB21380B8E27B6850
:1053D0003B637B68B3F850309BB21A463B6B134477
:1053E0003B633B681B781A013B6B134403F58163F5
:1053F000FB623B68DB885B089BB25B009AB2FB6A8E
:105400001A807B68BB627B68B3F850309BB21A4647
:10541000BB6A1344BB623B681B781A01BB6A134426
:1054200003F20C437B627B6A1B889BB2C3F30903C4
:105430009AB27B6A1A803B681B693E2B1DD93B6878
:105440001B695B09BB663B681B6903F01F03002BEC
:1054500002D1BB6E013BBB667B6A1B889AB2BB6EF6
:105460009BB29B029BB213439BB26FEA43436FEA2A
:1054700053439AB27B6A1A8026E03B681B69002B73
:105480000AD17B6A1B889BB26FEA43436FEA53439E
:105490009AB27B6A1A8017E03B681B695B08BB669F
:1054A0003B681B6903F00103002B02D0BB6E013384
:1054B000BB667B6A1B889AB2BB6E9BB29B029BB297
:1054C00013439AB27B6A1A807A683B681B789B0008
:1054D00013441B887B847B8C03F48043002B1BD0FC
:1054E0007A683B681B789B0013441B889BB223F4AB
:1054F000E04323F070033B847A683B681B789B0091
:105500001A443B8C43F07F4343F47F0343F440430E
:1055100043F080039BB213803B681B78002B24D19F
:105520007A683B681B789B0013441B889BB223F46A
:10553000804323F07003BB83BB8B83F48053BB8316
:10554000BB8B83F40053BB837A683B681B789B005A
:105550001A44BB8B43F07F4343F47F0343F400437F
:1055600043F080039BB21380EAE17A683B681B78C2
:105570009B0013441B889BB223F4804323F07003E9
:10558000FB83FB8B83F40053FB837A683B681B78B7
:105590009B001A44FB8B43F07F4343F47F0343F4A7
:1055A000004343F080039BB21380C9E13B68DB7882
:1055B000022B1ED17A683B681B789B0013441B8822
:1055C0009BB223F4E04323F07003A7F862307A68BB
:1055D0003B681B789B001A44B7F8623043F07F4366
:1055E00043F47F0343F4014343F080039BB21380F1
:1055F0001DE07A683B681B789B0013441B889BB2B4
:1056000023F4E24323F07003A7F864307A683B6820
:105610001B789B001A44B7F8643043F07F4343F48F
:105620007F0343F4004343F080039BB213807B6805
:10563000FB657B68B3F850309BB21A46FB6D134490
:10564000FB653B681B781A01FB6D134403F580630F
:10565000BB653B681B895B089BB25B009AB2BB6D64
:105660001A807B687B657B68B3F850309BB21A4622
:105670007B6D13447B653B681B781A017B6D13447B
:1056800003F581633B653B685B895B089BB25B000C
:105690009AB23B6D1A803B685B78002B40F0938098
:1056A0007A683B681B789B0013441B88A7F840303E
:1056B000B7F8403003F48043002B1BD07A683B6876
:1056C0001B789B0013441B889BB223F4E04323F018
:1056D0007003FB877A683B681B789B001A44FB8F3A
:1056E00043F07F4343F47F0343F4404343F080039C
:1056F0009BB213807A683B681B789B0013441B881D
:10570000BB87BB8F03F04003002B1BD07A683B683C
:105710001B789B0013441B889BB223F4E04323F0C7
:1057200070037B877A683B681B789B001A447B8FE9
:1057300043F07F4343F47F0343F4004343F0C0034B
:105740009BB213807A683B681B789B0013441B88CC
:105750009BB223F4804323F070033B873B8F83F499
:1057600080533B873B8F83F400533B877A683B68C9
:105770001B789B001A443B8F43F07F4343F47F0325
:1057800043F4004343F080039BB213807A683B6884
:105790001B789B0013441B889BB223F4E04323F047
:1057A0004003FB867A683B681B789B001A44FB8E9B
:1057B00043F07F4343F47F0343F4004343F080030B
:1057C0009BB21380BCE07A683B681B789B00134453
:1057D0001B88A7F84E30B7F84E3003F48043002BF7
:1057E0001DD07A683B681B789B0013441B889BB2D2
:1057F00023F4E04323F07003A7F84C307A683B6849
:105800001B789B001A44B7F84C3043F07F4343F4B5
:105810007F0343F4404343F080039BB213807A68D4
:105820003B681B789B0013441B88A7F84A30B7F8E5
:105830004A3003F04003002B1DD07A683B681B7888
:105840009B0013441B889BB223F4E04323F07003B6
:10585000A7F848307A683B681B789B001A44B7F871
:10586000483043F07F4343F47F0343F4004343F065
:10587000C0039BB213803B68DB78012B24D07A688D
:105880003B681B789B0013441B889BB223F4E043C6
:1058900023F04003A7F84430B7F8443083F02003E6
:1058A000A7F844307A683B681B789B001A44B7F825
:1058B000443043F07F4343F47F0343F4004343F019
:1058C00080039BB213801DE07A683B681B789B00C5
:1058D00013441B889BB223F4E04323F04003A7F852
:1058E00046307A683B681B789B001A44B7F846300C
:1058F00043F07F4343F47F0343F4004343F08003CA
:105900009BB213807A683B681B789B0013441B880A
:105910009BB223F4804323F07003A7F842307A68E7
:105920003B681B789B001A44B7F8423043F07F4332
:1059300043F47F0343F4004343F080039BB213809E
:1059400097F86F3018467437BD4680BC704700BF6B
:1059500080B48DB000AF786039603B681B7B002B52
:1059600040F08E803B685B78002B44D07A683B68BF
:105970001B789B0013441B88BB81BB8903F0400349
:10598000002B1BD07A683B681B789B0013441B8854
:105990009BB223F4E04323F070037B817A683B6879
:1059A0001B789B001A447B8943F07F4343F47F03B9
:1059B00043F4004343F0C0039BB213807A683B6812
:1059C0001B789B0013441B889BB223F4E04323F015
:1059D00040033B817A683B681B789B001A443B89F3
:1059E00043F07F4343F47F0343F4004343F08003D9
:1059F0009BB2138092E17A683B681B789B0013444A
:105A00001B887B827B8A03F48043002B1BD07A683F
:105A10003B681B789B0013441B889BB223F4E04334
:105A200023F070033B827A683B681B789B001A4422
:105A30003B8A43F07F4343F47F0343F4404343F006
:105A400080039BB213807A683B681B789B001344E9
:105A50001B889BB223F4804323F07003FB817A6898
:105A60003B681B789B001A44FB8943F07F4343F457
:105A70007F0343F4004343F080039BB213804DE166
:105A80003B685B78002B40F0A5807A683B681B7808
:105A90009B0013441B883B843B8C03F48043002B06
:105AA0001BD07A683B681B789B0013441B889BB211
:105AB00023F4E04323F07003FB837A683B681B7890
:105AC0009B001A44FB8B43F07F4343F47F0343F472
:105AD000404343F080039BB213807A683B681B7895
