:020000040800F2
:1000000000500020410E00086D0D0008750D00081D
:100010007D0D0008850D00088D0D00080000000012
:10002000000000000000000000000000A14A0008DD
:10003000950D000800000000814C0008FD38000804
:10004000890E0008890E0008890E0008890E000834
:10005000890E0008890E0008890E0008890E000824
:10006000890E0008890E0008890E0008890E000814
:10007000890E0008890E0008890E0008890E000804
:10008000890E0008890E0008890E0008890E0008F4
:10009000890E0008890E0008890E0008890E0008E4
:1000A000890E0008A10D0008890E0008890E0008BD
:1000B000890E0008890E0008890E0008890E0008C4
:1000C000890E0008890E0008890E0008890E0008B4
:1000D000890E0008890E0008B50D0008890E000879
:1000E000890E0008890E0008890E00080000000033
:1000F0000000000000000000000000000000000000
:0C01000000000000000000005FF808F1A3
:1001100010B5054C237833B9044B13B10448AFF341
:1001200000800123237010BD60000020000000004B
:10013000E482000808B5034B1BB103490348AFF341
:10014000008008BD0000000064000020E482000878
:10015000034613F8012B002AFBD1181A0138704707
:1001600053B94AB9002908BF00281CBF4FF0FF311E
:100170004FF0FF3000F068B9ADF1080C6DE904CE26
:1001800000F006F8DDF804E0DDE9022304B0704772
:100190002DE9F047089D0C46002B4ED194468C4526
:1001A0008646B2FA82F262D94AB1C2F12003914086
:1001B00020FA03F30CFA02FC194300FA02FE4FEA9C
:1001C0001C47B1FBF7F407FB14111FFA8CF64FEA3A
:1001D0001E4343EA014304FB06F199420AD91CEB92
:1001E000030304F1FF3080F01081994240F20D8149
:1001F000023C6344591AB1FBF7F007FB101100FBF6
:1002000006F61FFA8EF343EA01439E420AD91CEB1D
:10021000030300F1FF3180F0FA809E4240F2F78044
:100220006344023800219B1B40EA04401DB1D340C7
:100230000022C5E90032BDE8F0878B4205D90DB137
:10024000C5E9000100210846F5E7B3FA83F100296A
:1002500046D1A34202D39042C0F0EE80861A64EBEE
:1002600003030120002DE6D0C5E90063E3E7002A7F
:1002700040F08F80A1EB0C0401214FEA1C481FFACB
:100280008CF7B4FBF8F608FB164407FB06F04FEAC0
:100290001E4343EA0443984208D91CEB030306F1CA
:1002A000FF3402D2984200F2CB8026461C1AB4FBDF
:1002B000F8F008FB104400FB07F71FFA8EF343EA3F
:1002C00004439F4208D91CEB030300F1FF3402D220
:1002D0009F4200F2AE802046DB1B40EA0640A5E7C5
:1002E000C1F120078B4022FA07FC4CEA030C24FAE8
:1002F00007F64FEA1C49B6FBF9F81FFA8CFE09FB1A
:10030000186620FA07F38C4000FA01FA08FB0EF099
:100310001C43230C43EA0643984202FA01F20AD92D
:100320001CEB030308F1FF3680F0818098427ED9F0
:10033000A8F1020863441E1AB6FBF9F309FB136621
:1003400003FB0EFEA4B244EA0644A64508D91CEB02
:10035000040403F1FF3066D2A64564D9023B64442D
:1003600043EA0840A0FB0283A4EB0E049C42C6466D
:100370001E4650D34DD055B1BAEB0E0364EB0604C4
:1003800004FA07F7CB401F43CC40C5E900740021B5
:1003900051E70CFA02FCC2F12003D9404FEA1C4895
:1003A00020FA03F300FA02FEB1FBF8F008FB10118B
:1003B00094401C431FFA8CF7230C43EA014300FBD3
:1003C00007F1994208D91CEB030300F1FF362CD248
:1003D00099422AD9023863445B1AB3FBF8F108FB4F
:1003E0001133A4B244EA034401FB07F3A34208D942
:1003F0001CEB040401F1FF3613D2A34211D90239D8
:100400006444E41A41EA00413BE70446F2E6084648
:1004100008E7C245AFD2B8EB020E63EB0C06013819
:10042000A9E73146EDE703469AE73046D4E7B04600
:1004300081E7634402384FE706462346084611E742
:10044000023E634432E700BF704700BF80B483B010
:1004500000AF7860396000BF0C37BD4680BC704784
:1004600090B587B006AF00F011FD00F057F800F02E
:100470008DF900F0E7F800F0B1F800F03BF900F07A
:100480000FF900F061F9002006F066FF03461A4AF2
:100490001A49184606F04EFF03F04AFA07F014F91D
:1004A000174A0021174803F0FBFA0346164A136067
:1004B00007F0EAF8012006F067FF044607F0FAF8B3
:1004C0000146124B0593124B0493124B0393124BAC
:1004D0000293012301930223009304230022204668
:1004E00006F0FEFE07F048F907F00CF907F096F960
:1004F00003F040FA00BFFDE791720008297200087E
:100500000C8400080509000860040020117100082F
:1005100027740008BD7300084001002080B594B026
:1005200000AF07F1280328220021184607F0F4F94C
:1005300007F1140300221A605A609A60DA601A61A7
:100540003B1D00221A605A609A60DA600123BB6288
:100550004FF48033FB6200233B630123BB63022320
:100560007B644FF48033BB644FF48013FB6407F16A
:100570002803184601F038FB0346002B01D000F099
:10058000FBF90F237B610223BB610023FB614FF466
:1005900080633B6200237B6207F11403022118464B
:1005A00001F0A4FD0346002B01D000F0E5F9102373
:1005B0007B6000233B613B1D184601F08FFF034623
:1005C000002B01D000F0D8F900224FF0E0610020AC
:1005D00001F076FE00BF5037BD4680BD80B500AF4C
:1005E000164B174A1A60154B10225A60134B002203
:1005F0009A60124B0022DA60104B00221A610F4BF6
:1006000000225A610D4B00221A760C4B00225A76BA
:100610000A4B00229A76094B0022DA76074B002219
:100620001A77064B00225A77044800F061FC034613
:10063000002B01D000F0A0F900BF80BD7C0000209D
:100640000064004080B500AF124B134A1A60114B92
:10065000124A5A600F4B00229A600E4B0022DA6059
:100660000C4B4FF480421A610A4B00225A61094B2D
:1006700000229A61074B0022DA61064B00221A62BF
:10068000044801F077F80346002B01D000F074F91C
:1006900000BF80BDA400002000580040A0860100DB
:1006A00080B500AF114B124A1A60104B4FF4E13283
:1006B0005A600E4B00229A600C4B0022DA600B4B02
:1006C00000221A61094B0C225A61084B00229A61E0
:1006D000064B0022DA61054802F0F4F90346002BCC
:1006E00001D000F049F900BF80BD00BFF800002034
:1006F0000038014080B500AF114B124A1A60104B10
:100700004FF4E1325A600E4B00229A600C4B0022EB
:10071000DA600B4B00221A61094B0C225A61084B1C
:1007200000229A61064B0022DA61054802F0CAF9FC
:100730000346002B01D000F01FF900BF80BD00BFB1
:10074000400100200044004080B500AF0D4B0E4A30
:100750001A600C4B08221A710A4B02229A71094B3B
:1007600000229A72074B0022DA72064B00221A739B
:10077000044801F043F90346002B01D000F0FCF8D7
:1007800000BF80BD88010020005C004080B588B0BB
:1007900000AF07F1100300221A605A609A60DA6015
:1007A000544B9B69534A43F010039361514B9B692F
:1007B00003F01003FB60FB684E4B9B694D4A43F00E
:1007C000200393614B4B9B6903F02003BB60BB6824
:1007D000484B9B69474A43F004039361454B9B692F
:1007E00003F004037B607B68424B9B69414A43F002
:1007F000080393613F4B9B6903F008033B603B6830
:1008000000224FF400513C4800F09BFF00220221DF
:100810003A4800F096FF00220421394800F091FF89
:100820004FF400533B6101237B610023BB61022332
:10083000FB6107F1100319462F4800F0E7FDF12393
:100840003B6103237B6107F1100319462B4800F03D
:10085000DDFD02233B6101237B610023BB61022399
:10086000FB6107F110031946244800F0CFFD4FF259
:10087000F9033B6103237B6107F11003194620480C
:1008800000F0C4FD02233B6100237B610023BB61B8
:1008900007F1100319461A4800F0B8FD04233B6124
:1008A00001237B610023BB610223FB6107F110037D
:1008B0001946134800F0AAFD4FF480733B610223F0
:1008C0007B610223FB6107F1100319460B4800F01E
:1008D0009DFD4FF400433B6100237B610023BB611E
:1008E00007F110031946054800F090FD00BF2037BE
:1008F000BD4680BD001002400010014000080140CC
:10090000000C014080B584B000AF7860002006F094
:1009100023FD014607F108030022184606F052FEA7
:1009200007F108030021184606F035FE642003F0A5
:1009300049F907F108030121184606F02CFE64204E
:1009400003F040F9024806F0C5FB00BFE8E700BF2E
:100950000883000880B582B000AF78607B681B68B0
:10096000044A934201D100F0A7FA00BF0837BD4600
:1009700080BD00BF002C014080B400AF72B600BF44
:1009800000BFFDE780B584B000AF184B9B69174AE4
:1009900043F001039361154B9B6903F00103BB60B6
:1009A000BB68124BDB69114A43F08053D3610F4B94
:1009B000DB6903F080537B607B6800220F216FF0BE
:1009C000010000F046FC0A4B5B68FB60FB6823F00B
:1009D000E063FB60FB6843F00073FB60044AFB6864
:1009E000536000BF1037BD4680BD00BF00100240FD
:1009F0000000014080B58AB000AF786007F11403B1
:100A000000221A605A609A60DA607B681B68254A87
:100A1000934243D1244BDB69234A43F00073D361F3
:100A2000214BDB6903F000733B613B691E4B9B6903
:100A30001D4A43F0080393611B4B9B6903F00803B5
:100A4000FB60FB684FF480737B610023BB61002374
:100A5000FB6107F114031946144800F0D7FC4FF46A
:100A600000737B610223BB6103233B6207F1140324
:100A700019460E4800F0CAFC0D4B5B687B627B6A2E
:100A800023F4C0437B627B6A43F0E0637B627B6A52
:100A900043F480437B62064A7B6A536000BF283779
:100AA000BD4680BD0064004000100240000C0140C3
:100AB0000000014080B588B000AF786007F11003F6
:100AC00000221A605A609A60DA607B681B68164AD6
:100AD000934224D1154B9B69144A43F00803936158
:100AE000124B9B6903F00803FB60FB684FF4406303
:100AF0003B6112237B610323FB6107F1100319465D
:100B00000B4800F083FC094BDB69084A43F480037F
:100B1000D361064BDB6903F48003BB60BB6800BF95
:100B20002037BD4680BD00BF005800400010024085
:100B3000000C014080B58AB000AF786007F118035F
:100B400000221A605A609A60DA607B681B683B4A30
:100B5000934232D13A4B9B69394A43F480439361C3
:100B6000374B9B6903F480437B617B69344B9B6902
:100B7000334A43F004039361314B9B6903F0040350
:100B80003B613B694FF40073BB610223FB610323AC
:100B90007B6207F1180319462A4800F037FC4FF42E
:100BA0008063BB610023FB6100233B6207F11803F4
:100BB0001946244800F02AFC3CE07B681B68224A66
:100BC000934237D11E4BDB691D4A43F40033D36196
:100BD0001B4BDB6903F40033FB60FB68184B9B691C
:100BE000174A43F004039361154B9B6903F0040318
:100BF000BB60BB680423BB610223FB6103237B62F0
:100C000007F1180319460F4800F000FC0823BB61E8
:100C10000023FB6100233B6207F1180319460948D2
:100C200000F0F4FB00220521262000F012FB262014
:100C300000F02BFB00BF2837BD4680BD00380140C7
:100C400000100240000801400044004080B485B01C
:100C500000AF78607B681B68094A93420BD1094B4F
:100C6000DB69084A43F40003D361064BDB6903F4F4
:100C70000003FB60FB6800BF1437BD4680BC7047B3
:100C8000005C00400010024080B58CB000AF78607E
:100C90000023BB6200237B62002387F82F302E4B9A
:100CA0009B692D4A43F4006393612B4B9B6903F4CA
:100CB0000063BB60BB6807F10C0207F1100311462B
:100CC000184601F0BDFB01F0A7FBB862BB6A234ADE
:100CD000A2FB03239B0C013B7B62214B214A1A6040
:100CE0001F4B40F2E732DA601D4A7B6A53601C4BAF
:100CF00000221A611A4B00229A60194B00229A6155
:100D0000174801F0A1FC034687F82F3097F82F30E1
:100D1000002B1BD1124801F0EFFC034687F82F305F
:100D200097F82F30002B11D1192000F0AEFA7B6814
:100D30000F2B08D800227968192000F08AFA0A4A95
:100D40007B68136002E0012387F82F3097F82F307B
:100D500018463037BD4680BD0010024083DE1B437D
:100D600064040020002C01400400002080B400AF87
:100D700000BFFDE780B400AF00BFFDE780B400AF67
:100D800000BFFDE780B400AF00BFFDE780B400AF57
:100D900000BFFDE780B400AF00BFBD4680BC704718
:100DA00080B500AF024801F0F9FC00BF80BD00BF74
:100DB0006404002080B500AF024801F0B9FF00BF15
:100DC00080BD00BF4001002080B586B000AF7860D4
:100DD000144A154BD31A7B617B693B61134B1B682B
:100DE000002B02D1114B124A1A60104B1A687B6813
:100DF00013443A699A4207D206F0ECFD03460C22EE
:100E00001A604FF0FF3309E0084B1B68FB60074B8B
:100E10001A687B681344054A1360FB681846183744
:100E2000BD4680BD0050002000080000AC0400203A
:100E30003043002080B400AF00BFBD4680BC704787
:100E4000FFF7F8FF0B480C490C4A002302E0D45886
:100E5000C4500433C4188C42F9D3094A094C002306
:100E600001E013600432A242FBD306F0B9FDFFF7A4
:100E7000F7FA704700000020600000204485000859
:100E8000600000202C430020FEE7000080B500AF8A
:100E9000084B1B68074A43F010031360032000F05F
:100EA000CDF90F20FFF7F0FEFFF76CFD0023184689
:100EB00080BD00BF0020024080B400AF054B1B780E
:100EC0001A46054B1B681344034A136000BFBD4616
:100ED00080BC704708000020B004002080B400AF40
:100EE000024B1B681846BD4680BC7047B00400200A
:100EF00080B584B000AF78607B68002B01D10123FE
:100F0000EDE07B6893F82030DBB2002B02D17868EB
:100F1000FFF770FD7B681B681A687B681B6842F0EE
:100F200001021A60FFF7DAFFF86012E0FFF7D6FF60
:100F30000246FB68D31A0A2B0BD97B685B6A43F421
:100F400000327B685A627B68052283F820200123E7
:100F5000C5E07B681B685B6803F00103002BE5D0EC
:100F60007B681B681A687B681B6822F002021A60A3
:100F7000FFF7B4FFF86012E0FFF7B0FF0246FB682E
:100F8000D31A0A2B0BD97B685B6A43F400327B6867
:100F90005A627B68052283F8202001239FE07B684A
:100FA0001B685B6803F00203002BE5D17B681B7EA6
:100FB000012B08D17B681B681A687B681B6842F0AC
:100FC00080021A6007E07B681B681A687B681B68F0
:100FD00022F080021A607B685B7E012B08D17B685F
:100FE0001B681A687B681B6842F040021A6007E0C1
:100FF0007B681B681A687B681B6822F040021A60D5
:101000007B689B7E012B08D17B681B681A687B6814
:101010001B6842F020021A6007E07B681B681A68B0
:101020007B681B6822F020021A607B68DB7E012B44
:1010300008D17B681B681A687B681B6822F0100265
:101040001A6007E07B681B681A687B681B6842F0BF
:1010500010021A607B681B7F012B08D17B681B681C
:101060001A687B681B6842F008021A6007E07B6818
:101070001B681A687B681B6822F008021A607B688C
:101080005B7F012B08D17B681B681A687B681B6833
:1010900042F004021A6007E07B681B681A687B68EC
:1010A0001B6822F004021A607B689A687B68DB6820
:1010B0001A437B681B691A437B685B6942EA030138
:1010C0007B685B685A1E7B681B680A43DA617B6831
:1010D00000225A627B68012283F8202000231846F0
:1010E0001037BD4680BD000080B485B000AF786089
:1010F0007B6803F00703FB600C4BDB68BB60BA68DE
:101100004FF6FF031340BB60FB681A02BB68134332
:1011100043F0BF6343F40033BB60044ABB68D36051
:1011200000BF1437BD4680BC704700BF00ED00E033
:1011300080B400AF044BDB681B0A03F007031846BA
:10114000BD4680BC704700BF00ED00E080B483B0B6
:1011500000AF0346FB7197F90730002B0BDBFB79DF
:1011600003F01F02064997F907305B09012000FAD6
:1011700002F241F8232000BF0C37BD4680BC704707
:1011800000E100E080B483B000AF03463960FB713A
:1011900097F90730002B0ADB3B68DAB20C4997F964
:1011A00007301201D2B20B4483F800230AE03B68F7
:1011B000DAB20849FB7903F00F03043B1201D2B203
:1011C0000B441A7600BF0C37BD4680BC704700BF89
:1011D00000E100E000ED00E080B489B000AFF8600D
:1011E000B9607A60FB6803F00703FB61FB69C3F138
:1011F0000703042B28BF0423BB61FB690433062BC0
:1012000002D9FB69033B00E000237B614FF0FF3212
:10121000BB6902FA03F3DA43BB681A407B699A4060
:101220004FF0FF317B6901FA03F3D9437B680B4030
:10123000134318462437BD4680BC704780B582B042
:1012400000AF78607868FFF74FFF00BF0837BD46F2
:1012500080BD80B586B000AF0346B9607A60FB738D
:1012600000237B61FFF764FF78617A68B968786969
:10127000FFF7B2FF024697F90F3011461846FFF705
:1012800081FF00BF1837BD4680BD80B582B000AF7A
:101290000346FB7197F907301846FFF757FF00BF69
:1012A0000837BD4680BD80B485B000AF78600023AC
:1012B000FB737B6893F82130DBB2022B08D07B688C
:1012C00004229A637B68002283F82020012320E017
:1012D0007B681B681A687B681B6822F00E021A6024
:1012E0007B681B681A687B681B6822F001021A6021
:1012F0007B681A6C7B68DB6B012101FA02F25A6091
:101300007B68012283F821207B68002283F820205B
:10131000FB7B18461437BD4680BC704780B584B04F
:1013200000AF78600023FB737B6893F82130DBB259
:10133000022B05D07B6804229A630123FB7351E0E2
:101340007B681B681A687B681B6822F00E021A60B3
:101350007B681B681A687B681B6822F001021A60B0
:101360007B681B68224A934229D07B681B68214A0C
:10137000934222D07B681B681F4A93421AD07B6835
:101380001B681E4A934212D07B681B681C4A93421A
:101390000AD07B681B681B4A934202D14FF480132A
:1013A0000EE04FF080730BE04FF4803308E04FF411
:1013B000805305E04FF4807302E0102300E0012326
:1013C000114A53607B68012283F821207B68002248
:1013D00083F820207B685B6B002B03D07B685B6B02
:1013E00078689847FB7B18461037BD4680BD00BF24
:1013F000080002401C00024030000240440002404D
:10140000580002406C0002400000024080B48BB0E3
:1014100000AF7860396000237B6200233B6269E1A2
:1014200001227B6A02FA03F3FB613B681B68FA69DD
:101430001340BB61BA69FB699A4240F058813B682E
:101440005B689A4A93425ED0984A934275D8984A0C
:10145000934258D0964A93426FD8964A934252D0BC
:10146000944A934269D8944A93424CD0924A934208
:1014700063D8924A934246D0904A93425DD8122B49
:101480002AD8122B59D801A252F823F007150008C8
:10149000E1140008F3140008351500083B15000896
:1014A0003B1500083B1500083B1500083B150008DC
:1014B0003B1500083B1500083B1500083B150008CC
:1014C0003B1500083B1500083B1500083B150008BC
:1014D000E9140008FD140008794A934213D02CE067
:1014E0003B68DB683B6229E03B68DB6804333B62B6
:1014F00024E03B68DB6808333B621FE03B68DB6845
:101500000C333B621AE03B689B68002B02D104233A
:101510003B6213E03B689B68012B05D108233B62CB
:101520007B68FA691A6109E008233B627B68FA6903
:101530005A6103E000233B6200E000BFBB69FF2B60
:1015400001D87B6801E07B6804337B61BB69FF2BBA
:1015500002D87B6A9B0002E07B6A083B9B003B61F0
:101560007B691A680F213B6901FA03F3DB431A40D8
:10157000396A3B6901FA03F31A437B691A603B68D5
:101580005B6803F08053002B00F0B1804D4B9B69EA
:101590004C4A43F0010393614A4B9B6903F00103FA
:1015A000BB60BB68484A7B6A9B08023352F8233011
:1015B000FB607B6A03F003039B000F2202FA03F334
:1015C000DB43FA681340FB607B68404A934213D0C8
:1015D0007B683F4A93420DD07B683E4A934207D0D6
:1015E0007B683D4A934201D1032306E0042304E0D3
:1015F000022302E0012300E000237A6A02F00302E2
:1016000092009340FA681343FB602F497B6A9B0862
:101610000233FA6841F823203B685B6803F48013C7
:10162000002B06D02D4B9A682C49BB6913438B6065
:1016300006E02A4B9A68BB69DB43284913408B605C
:101640003B685B6803F40013002B06D0234BDA6879
:101650002249BB691343CB6006E0204BDA68BB69C3
:10166000DB431E491340CB603B685B6803F40033E7
:10167000002B06D0194B5A681849BB6913434B60BD
:1016800006E0164B5A68BB69DB43144913404B60B4
:101690003B685B6803F48033002B21D00F4B1A6842
:1016A0000E49BB6913430B6021E000BF00003210FC
:1016B0000000311000002210000021100000121064
:1016C000000011100010024000000140000801401D
:1016D000000C0140001001400014014000040140D2
:1016E0000B4B1A68BB69DB43094913400B607B6AEB
:1016F00001337B623B681A687B6A22FA03F3002B92
:101700007FF48EAE00BF00BF2C37BD4680BC704753
:101710000004014080B485B000AF78600B467B8048
:101720007B689A687B881340002B02D00123FB73EF
:1017300001E00023FB73FB7B18461437BD4680BCD9
:10174000704780B483B000AF78600B467B8013464F
:101750007B707B78002B03D07A887B681A6103E06A
:101760007B881A047B681A6100BF0C37BD4680BCB9
:101770007047000080B584B000AF78607B68002BB4
:1017800001D101232BE17B6893F83D30DBB2002BC4
:1017900006D17B68002283F83C207868FFF78AF93D
:1017A0007B68242283F83D207B681B681A687B686D
:1017B0001B6822F001021A607B681B681A687B684C
:1017C0001B6842F400421A607B681B681A687B68D9
:1017D0001B6822F400421A6000F00AFEF8607B6881
:1017E0005B68814A934207D8FB68804A934294BF62
:1017F00001230023DBB206E0FB687D4A934294BFDD
:1018000001230023DBB2002B01D00123E7E0FB68BA
:10181000784AA2FB03239B0CBB607B681B685B6858
:1018200023F03F017B681B68BA680A435A607B68F3
:101830001B681B6A23F03F017B685B686A4A93421E
:1018400002D8BB68013309E0BB684FF4967202FB13
:1018500003F3694AA2FB03239B0901337A681268E8
:101860000B4313627B681B68DB6923F44F4222F051
:10187000FF027B685B685C498B4219D8FB68591E84
:101880007B685B685B00B1FBF3F3591C40F6FC73AB
:101890000B40002B0AD0FB68591E7B685B685B001D
:1018A000B1FBF3F30133C3F30B0351E004234FE027
:1018B0007B689B68002B11D1FB68581E7B685968B8
:1018C0000B465B000B44B0FBF3F30133C3F30B0394
:1018D000002B0CBF01230023DBB212E0FB68581E73
:1018E0007B6859680B469B000B4499000B44B0FB86
:1018F000F3F30133C3F30B03002B0CBF01230023CD
:10190000DBB2002B01D0012322E07B689B68002B17
:101910000ED1FB68581E7B6859680B465B000B4470
:10192000B0FBF3F30133C3F30B0343F400430FE0C5
:10193000FB68581E7B6859680B469B000B44990056
:101940000B44B0FBF3F30133C3F30B0343F4404305
:10195000796809681343CB617B681B681B6823F0B7
:10196000C0017B68DA697B681B6A1A437B681B6865
:101970000A431A607B681B689B6823F4034323F0C7
:10198000FF037A6811697A68D26811437A6812682D
:101990000B4393607B681B68DB6823F0FF017B6867
:1019A0005A697B689B691A437B681B680A43DA6043
:1019B0007B681B681A687B681B6842F001021A602A
:1019C0007B6800221A647B68202283F83D207B68B4
:1019D00000221A637B68002283F83E200023184609
:1019E0001037BD4680BD00BFA08601007F841E0069
:1019F000FF083D0083DE1B43D34D621080B584B0E9
:101A000000AF78607B68002B01D10123E8E07B68A0
:101A100093F89132DBB2002B06D17B68002283F869
:101A200090227868FFF712F97B68032283F89122ED
:101A30007B6800225A717B681B68184601F0E7FE3C
:101A40007B6818687B6804330ECB01F0D3FE034635
:101A5000002B05D07B68022283F891220123BFE08E
:101A60007B681B680021184601F0EBFE0346002B43
:101A700005D07B68022283F891220123B0E0002385
:101A8000FB733EE0FA7B796813469B001344DB004E
:101A90000B44113301221A70FA7B796813469B00BC
:101AA0001344DB000B441033FA7B1A70FA7B79681D
:101AB00013469B001344DB000B44133300221A70BF
:101AC000FA7B796813469B001344DB000B442033F8
:101AD00000221A60FA7B796813469B001344DB00EE
:101AE0000B44243300221A60FB7B79685A1C13468E
:101AF0009B001344DB000B4400221A60FB7B013384
:101B0000FB737B681B79FA7B9A42BBD30023FB7380
:101B100044E0FA7B796813469B001344DB000B44D6
:101B200003F2511300221A70FA7B796813469B0066
:101B30001344DB000B4403F5A873FA7B1A70FA7B9D
:101B4000796813469B001344DB000B4403F25313E4
:101B500000221A70FA7B796813469B001344DB005D
:101B60000B4403F5B07300221A60FA7B79681346C0
:101B70009B001344DB000B4403F5B27300221A6090
:101B8000FA7B796813469B001344DB000B4403F592
:101B9000B47300221A60FB7B0133FB737B681B79F3
:101BA000FA7B9A42B5D37B6818687B6804330ECB06
:101BB00001F053FE0346002B05D07B68022283F818
:101BC000912201230CE07B6800225A737B6801227A
:101BD00083F891227B681B68184601F05BFE0023A6
:101BE00018461037BD4680BD80B586B000AF78601E
:101BF0007B68002B01D1012372E27B681B6803F034
:101C00000103002B00F08780924B5B6803F00C030C
:101C1000042B0CD08F4B5B6803F00C03082B12D104
:101C20008C4B5B6803F48033B3F5803F0BD1894B59
:101C30001B6803F40033002B6CD07B685B68002BBF
:101C400068D101234CE27B685B68B3F5803F06D125
:101C5000804B1B687F4A43F4803313602EE07B681F
:101C60005B68002B0CD17B4B1B687A4A23F48033D2
:101C70001360784B1B68774A23F4802313601DE0C0
:101C80007B685B68B3F5A02F0CD1724B1B68714A5F
:101C900043F4802313606F4B1B686E4A43F4803318
:101CA00013600BE06B4B1B686A4A23F480331360AC
:101CB000684B1B68674A23F4802313607B685B686A
:101CC000002B13D0FFF70AF9386108E0FFF706F997
:101CD00002463B69D31A642B01D9032300E25D4B12
:101CE0001B6803F40033002BF0D014E0FFF7F6F884
:101CF000386108E0FFF7F2F802463B69D31A642B1B
:101D000001D90323ECE1534B1B6803F40033002B90
:101D1000F0D100E000BF7B681B6803F00203002BDA
:101D200063D04C4B5B6803F00C03002B0BD0494B8A
:101D30005B6803F00C03082B1CD1464B5B6803F473
:101D40008033002B16D1434B1B6803F00203002B9A
:101D500005D07B681B69012B01D00123C0E13D4BFD
:101D60001B6823F0F8027B685B69DB003949134389
:101D70000B603AE07B681B69002B20D0364B0122B8
:101D80001A60FFF7ABF8386108E0FFF7A7F80246E2
:101D90003B69D31A022B01D90323A1E12D4B1B6808
:101DA00003F00203002BF0D02A4B1B6823F0F8024B
:101DB0007B685B69DB00274913430B6015E0264B0A
:101DC00000221A60FFF78AF8386108E0FFF786F80A
:101DD00002463B69D31A022B01D9032380E11D4B34
:101DE0001B6803F00203002BF0D17B681B6803F033
:101DF0000803002B3AD07B689B69002B19D0174B46
:101E000001221A60FFF76AF8386108E0FFF766F808
:101E100002463B69D31A022B01D9032360E10D4B23
:101E20005B6A03F00203002BF0D0012000F038FBC6
:101E30001CE00A4B00221A60FFF750F838610FE0EF
:101E4000FFF74CF802463B69D31A022B08D903234B
:101E500046E100BF001002400000424280044242BE
:101E6000924B5B6A03F00203002BE9D17B681B688D
:101E700003F00403002B00F0A6800023FB758B4BBE
:101E8000DB6903F08053002B0DD1884BDB69874A57
:101E900043F08053D361854BDB6903F08053BB6013
:101EA000BB680123FB75824B1B6803F48073002B16
:101EB00018D17F4B1B687E4A43F480731360FFF791
:101EC0000DF8386108E0FFF709F802463B69D31ABC
:101ED000642B01D9032303E1754B1B6803F4807362
:101EE000002BF0D07B68DB68012B06D16F4B1B6A9F
:101EF0006E4A43F0010313622DE07B68DB68002B20
:101F00000CD16A4B1B6A694A23F001031362674BC9
:101F10001B6A664A23F0040313621CE07B68DB68DB
:101F2000052B0CD1614B1B6A604A43F0040313621A
:101F30005E4B1B6A5D4A43F0010313620BE05B4B8F
:101F40001B6A5A4A23F001031362584B1B6A574A13
:101F500023F0040313627B68DB68002B15D0FEF7C7
:101F6000BDFF38610AE0FEF7B9FF02463B69D31AAC
:101F700041F28832934201D90323B1E04B4B1B6AF3
:101F800003F00203002BEED014E0FEF7A7FF386148
:101F90000AE0FEF7A3FF02463B69D31A41F28832FA
:101FA000934201D903239BE0404B1B6A03F00203D9
:101FB000002BEED1FB7D012B05D13C4BDB693B4A6D
:101FC00023F08053D3617B68DB69002B00F08780AE
:101FD000364B5B6803F00C03082B61D07B68DB6930
:101FE000022B46D1334B00221A60FEF777FF38618F
:101FF00008E0FEF773FF02463B69D31A022B01D9B2
:1020000003236DE0294B1B6803F00073002BF0D114
:102010007B681B6AB3F5803F08D1244B5B6823F4CF
:1020200000327B689B68214913434B601F4B5B6800
:1020300023F474127B68196A7B685B6A0B431B4943
:1020400013434B601B4B01221A60FEF747FF3861B8
:1020500008E0FEF743FF02463B69D31A022B01D981
:1020600003233DE0114B1B6803F00073002BF0D0FD
:1020700035E0104B00221A60FEF730FF386108E0AF
:10208000FEF72CFF02463B69D31A022B01D903232A
:1020900026E0064B1B6803F00073002BF0D11EE016
:1020A0007B68DB69012B07D1012319E00010024096
:1020B00000700040600042420B4B5B68FB60FB68B5
:1020C00003F480327B681B6A9A4206D1FB6803F4F2
:1020D00070127B685B6A9A4201D0012300E0002302
:1020E00018461837BD4680BD0010024080B584B048
:1020F00000AF786039607B68002B01D10123D0E00C
:102100006A4B1B6803F007033A689A4210D9674B81
:102110001B6823F0070265493B6813430B60634B60
:102120001B6803F007033A689A4201D00123B8E024
:102130007B681B6803F00203002B20D07B681B68C0
:1021400003F00403002B05D0594B5B68584A43F455
:10215000E06353607B681B6803F00803002B05D025
:10216000534B5B68524A43F460535360504B5B6877
:1021700023F0F0027B689B684D4913434B607B68FA
:102180001B6803F00103002B40D07B685B68012BC8
:1021900007D1474B1B6803F40033002B15D10123F3
:1021A0007FE07B685B68022B07D1414B1B6803F023
:1021B0000073002B09D1012373E03D4B1B6803F032
:1021C0000203002B01D101236BE0394B5B6823F044
:1021D00003027B685B68364913434B60FEF77EFE63
:1021E000F8600AE0FEF77AFE0246FB68D31A41F275
:1021F0008832934201D9032353E02D4B5B6803F0EF
:102200000C027B685B689B009A42EBD1274B1B68F2
:1022100003F007033A689A4210D2244B1B6823F05C
:10222000070222493B6813430B60204B1B6803F0F5
:1022300007033A689A4201D0012332E07B681B68A9
:1022400003F00403002B08D0194B5B6823F4E06211
:102250007B68DB68164913434B607B681B6803F09F
:102260000803002B09D0124B5B6823F460527B6893
:102270001B69DB000E4913434B6000F059F802461E
:102280000B4B5B681B0903F00F030A49CB5C22FA76
:1022900003F3094A1360094B1B681846FEF7F4FC68
:1022A000002318461037BD4680BD00BF0020024005
:1022B00000100240308400080000002004000020CC
:1022C00080B58AB000AFF860B9607A6007F1180392
:1022D00000221A605A609A60DA600223FB610323CD
:1022E0007B6200233B624FF48073BB610E4B9B69A2
:1022F0000D4A43F0040393610B4B9B6903F0040305
:102300007B617B6907F1180319460848FFF77EF8DF
:10231000054B5B6823F0E0620349BB6813434B60E5
:1023200000BF2837BD4680BD0010024000080140B4
:1023300080B487B000AF0023FB600023BB600023A4
:102340007B6100237B6000233B611E4B5B68FB606D
:10235000FB6803F00C03042B02D0082B03D027E00A
:10236000194B3B6127E0FB689B0C03F00F03174AF6
:10237000D35C7B60FB6803F48033002B10D0114BDF
:102380005B685B0C03F00103114AD35CBB607B68A4
:102390000D4A03FB02F2BB68B2FBF3F37B6104E07E
:1023A0007B680C4A02FB03F37B617B693B6102E0C3
:1023B000094B3B6100BF3B6918461C37BD4680BCDA
:1023C000704700BF00100240001BB700488400089F
:1023D0005884000800093D0000127A0080B400AF64
:1023E000024B1B681846BD4680BC704700000020A9
:1023F00080B500AFFFF7F2FF0246054B5B681B0A92
:1024000003F007030349CB5C22FA03F3184680BDAF
:10241000001002404084000880B500AFFFF7DEFFE7
:102420000246054B5B68DB0A03F007030349CB5CFC
:1024300022FA03F3184680BD0010024040840008D1
:1024400080B483B000AF786039607B680F221A6077
:10245000114B5B6803F003027B685A600E4B5B68AC
:1024600003F0F0027B689A600B4B5B6803F4E06258
:102470007B68DA60084B5B68DB0803F4E0627B682A
:102480001A61064B1B6803F007023B681A6000BF25
:102490000C37BD4680BC704700100240002002404F
:1024A00080B485B000AF78600A4B1B680A4AA2FB73
:1024B00003235B0A7A6802FB03F3FB6000BFFB683F
:1024C0005A1EFA60002BF9D100BF00BF1437BD4679
:1024D00080BC704700000020D34D621080B586B0EC
:1024E00000AF786000233B610023FB607B681B68C2
:1024F00003F00103002B7DD00023FB754F4BDB69FC
:1025000003F08053002B0DD14C4BDB694B4A43F059
:102510008053D361494BDB6903F08053BB60BB68D8
:102520000123FB75464B1B6803F48073002B18D105
:10253000434B1B68424A43F480731360FEF7CEFCA2
:10254000386108E0FEF7CAFC02463B69D31A642BE7
:1025500001D903236DE03A4B1B6803F48073002B11
:10256000F0D0364B1B6A03F44073FB60FB68002B12
:102570002ED07B685B6803F44073FA689A4227D0D8
:102580002E4B1B6A23F44073FB602E4B01221A6012
:102590002C4B00221A60294AFB681362FB6803F087
:1025A0000103002B14D0FEF799FC38610AE0FEF716
:1025B00095FC02463B69D31A41F28832934201D915
:1025C000032336E01D4B1B6A03F00203002BEED001
:1025D0001A4B1B6A23F440727B685B6817491343EC
:1025E0000B62FB7D012B05D1144BDB69134A23F0F1
:1025F0008053D3617B681B6803F00203002B08D073
:102600000E4B5B6823F440427B689B680B49134385
:102610004B607B681B6803F01003002B08D0074B4E
:102620005B6823F480027B68DB68044913434B60DA
:10263000002318461837BD4680BD00BF0010024079
:10264000007000404004424280B582B000AF786024
:102650007B68002B01D1012341E07B6893F83D307A
:10266000DBB2002B06D17B68002283F83C2078681F
:1026700000F039F87B68022283F83D207B681A68F5
:102680007B6804331946104600F09CF97B680122F0
:1026900083F846207B68012283F83E207B68012274
:1026A00083F83F207B68012283F840207B68012269
:1026B00083F841207B68012283F842207B68012255
:1026C00083F843207B68012283F844207B68012241
:1026D00083F845207B68012283F83D2000231846BB
:1026E0000837BD4680BD80B483B000AF786000BFBE
:1026F0000C37BD4680BC704780B485B000AF7860B1
:102700007B6893F83D30DBB2012B01D001233AE026
:102710007B68022283F83D207B681B68DA687B684F
:102720001B6842F00102DA607B681B68184A93421A
:102730000ED07B681B68B3F1804F09D07B681B68A3
:10274000144A934204D07B681B68134A934211D108
:102750007B681B689B6803F00703FB60FB68062B24
:1027600010D07B681B681A687B681B6842F0010206
:102770001A6007E07B681B681A687B681B6842F078
:1027800001021A60002318461437BD4680BC70470A
:10279000002C0140000400400008004080B584B0D7
:1027A00000AF78607B681B68DB68FB607B681B6838
:1027B0001B69BB60BB6803F00203002B20D0FB68E1
:1027C00003F00203002B1BD07B681B686FF0020232
:1027D0001A617B6801221A777B681B689B6903F08A
:1027E0000303002B03D0786800F0D1F805E0786887
:1027F00000F0C4F8786800F0D3F87B6800221A77FC
:10280000BB6803F00403002B20D0FB6803F0040333
:10281000002B1BD07B681B686FF004021A617B6879
:1028200002221A777B681B689B6903F44073002BB4
:1028300003D0786800F0ABF805E0786800F09EF807
:10284000786800F0ADF87B6800221A77BB6803F067
:102850000803002B20D0FB6803F00803002B1BD0DB
:102860007B681B686FF008021A617B6804221A7784
:102870007B681B68DB6903F00303002B03D07868D7
:1028800000F085F805E0786800F078F8786800F0E6
:1028900087F87B6800221A77BB6803F01003002BCF
:1028A00020D0FB6803F01003002B1BD07B681B6853
:1028B0006FF010021A617B6808221A777B681B6828
:1028C000DB6903F44073002B03D0786800F05FF8F5
:1028D00005E0786800F052F8786800F061F87B68ED
:1028E00000221A77BB6803F00103002B0CD0FB68B1
:1028F00003F00103002B07D07B681B686FF0010217
:102900001A617868FEF726F8BB6803F08003002B95
:102910000CD0FB6803F08003002B07D07B681B689A
:102920006FF080021A61786800F0C3F8BB6803F0AA
:102930004003002B0CD0FB6803F04003002B07D0B2
:102940007B681B686FF040021A61786800F031F80C
:10295000BB6803F02003002B0CD0FB6803F02003BE
:10296000002B07D07B681B686FF020021A61786823
:1029700000F096F800BF1037BD4680BD80B483B02C
:1029800000AF786000BF0C37BD4680BC704780B494
:1029900083B000AF786000BF0C37BD4680BC704785
:1029A00080B483B000AF786000BF0C37BD4680BCF8
:1029B000704780B483B000AF786000BF0C37BD466D
:1029C00080BC704780B485B000AF786039607B68A8
:1029D0001B68FB607B682F4A93420BD07B68B3F186
:1029E000804F07D07B682C4A934203D07B682B4AE8
:1029F000934208D1FB6823F07003FB603B685B687F
:102A0000FA681343FB607B68224A93420BD07B68D1
:102A1000B3F1804F07D07B681F4A934203D07B6895
:102A20001E4A934208D1FB6823F44073FB603B6865
:102A3000DB68FA681343FB60FB6823F080023B68A5
:102A40005B691343FB607B68FA681A603B689A68AD
:102A50007B68DA623B681A687B689A627B680D4A19
:102A6000934203D13B681A697B681A637B68012231
:102A70005A617B681B6903F00103002B05D07B685A
:102A80001B6923F001027B681A6100BF1437BD4641
:102A900080BC7047002C014000040040000800404A
:102AA00080B483B000AF786000BF0C37BD4680BCF7
:102AB000704780B483B000AF786000BF0C37BD466C
:102AC00080BC704780B582B000AF78607B68002B17
:102AD00001D1012342E07B6893F84130DBB2002B47
:102AE00006D17B68002283F840207868FEF722F840
:102AF0007B68242283F841207B681B68DA687B6846
:102B00001B6822F40052DA60786800F0E5FD7B680B
:102B10001B681A697B681B6822F490421A617B6803
:102B20001B685A697B681B6822F02A025A617B681D
:102B30001B68DA687B681B6842F40052DA607B68C5
:102B400000225A647B68202283F841207B6820227F
:102B500083F842207B6800225A6300231846083716
:102B6000BD4680BD80B58AB002AFF860B9603B60F9
:102B70001346FB8000237B61FB6893F84130DBB296
:102B8000202B75D1BB68002B02D0FB88002B01D114
:102B900001236EE0FB6800225A64FB68212283F85F
:102BA0004120FEF79BF97861FB68FA889A84FB68FC
:102BB000FA88DA84FB689B68B3F5805F08D1FB680C
:102BC0001B69002B04D10023FB61BB68BB6103E0E0
:102BD000BB68FB610023BB612EE03B6800937B690F
:102BE00000228021F86800F049FB0346002B05D045
:102BF000FB68202283F8412003233AE0FB69002B85
:102C00000BD1BB691B881A46FB681B68C2F308021C
:102C10005A60BB690233BB6107E0FB691A78FB6845
:102C20001B685A60FB690133FB61FB68DB8C9BB25C
:102C3000013B9AB2FB68DA84FB68DB8C9BB2002B09
:102C4000CBD13B6800937B6900224021F86800F0FB
:102C500015FB0346002B05D0FB68202283F841209A
:102C6000032306E0FB68202283F84120002300E0D4
:102C7000022318462037BD4680BD80B485B000AF22
:102C8000F860B9601346FB80FB6893F84130DBB213
:102C9000202B21D1BB68002B02D0FB88002B01D157
:102CA00001231AE0FB68BA681A62FB68FA889A8402
:102CB000FB68FA88DA84FB6800225A64FB682122E8
:102CC00083F84120FB681B68DA68FB681B6842F0E8
:102CD0008002DA60002300E0022318461437BD4664
:102CE00080BC704780B584B000AFF860B96013460F
:102CF000FB80FB6893F84230DBB2202B12D1BB681B
:102D0000002B02D0FB88002B01D101230BE0FB68D4
:102D100000221A63FB881A46B968F86800F007FBBE
:102D2000034600E0022318461037BD4680BD000070
:102D300080B5BAB000AF78607B681B681B68C7F8C5
:102D4000E4307B681B68DB68C7F8E0307B681B6891
:102D50005B69C7F8DC300023C7F8D8300023C7F818
:102D6000D430D7F8E43003F00F03C7F8D830D7F8E1
:102D7000D830002B0FD1D7F8E43003F02003002B1C
:102D800009D0D7F8E03003F02003002B03D0786897
:102D900000F0E3FB5BE2D7F8D830002B00F0DE80D8
:102DA000D7F8DC3003F00103002B06D1D7F8E03070
:102DB00003F49073002B00F0D180D7F8E43003F0D7
:102DC0000103002B0BD0D7F8E03003F48073002B05
:102DD00005D07B685B6C43F001027B685A64D7F8CE
:102DE000E43003F00403002B0BD0D7F8DC3003F001
:102DF0000103002B05D07B685B6C43F002027B680B
:102E00005A64D7F8E43003F00203002B0BD0D7F854
:102E1000DC3003F00103002B05D07B685B6C43F0D2
:102E200004027B685A64D7F8E43003F00803002BEF
:102E300011D0D7F8E03003F02003002B05D1D7F8EC
:102E4000DC3003F00103002B05D07B685B6C43F0A2
:102E500008027B685A647B685B6C002B00F0F2818F
:102E6000D7F8E43003F02003002B08D0D7F8E03087
:102E700003F02003002B02D0786800F06EFB7B6823
:102E80001B685B6903F04003002B14BF0123002380
:102E9000DBB2C7F8D4307B685B6C03F00803002B0F
:102EA00003D1D7F8D430002B4FD0786800F078FAEF
:102EB0007B681B685B6903F04003002B41D07B6893
:102EC0001B681433C7F89C30D7F89C3053E8003F98
:102ED000C7F89830D7F8983023F04003C7F8D030BF
:102EE0007B681B681433D7F8D020C7F8A820C7F830
:102EF000A430D7F8A410D7F8A82041E80023C7F8D9
:102F0000A030D7F8A030002BD9D17B68DB6B002B29
:102F100013D07B68DB6B7E4A5A637B68DB6B184699
:102F2000FEF7FCF90346002B16D07B68DB6B5B6B6E
:102F30007A68D26B104698470EE0786800F08AF9FC
:102F40000AE0786800F086F906E0786800F082F917
:102F50007B6800225A6475E100BF73E17B681B6BDC
:102F6000012B40F04F81D7F8E43003F01003002B21
:102F700000F04881D7F8E03003F01003002B00F098
:102F800041810023BB607B681B681B68BB607B685A
:102F90001B685B68BB60BB687B681B685B6903F090
:102FA0004003002B00F0B6807B68DB6B1B685B681E
:102FB000A7F8BE30B7F8BE30002B00F045817B6823
:102FC0009B8DB7F8BE209A4280F03E817B68B7F8AF
:102FD000BE20DA857B68DB6B9B69202B00F0888044
:102FE0007B681B680C33C7F88830D7F8883053E803
:102FF000003FC7F88430D7F8843023F48073C7F8D3
:10300000B8307B681B680C33D7F8B820C7F8942019
:10301000C7F89030D7F89010D7F8942041E80023F3
:10302000C7F88C30D7F88C30002BD9D17B681B685F
:1030300014337B677B6F53E8003F3B673B6F23F0A4
:103040000103C7F8B4307B681B681433D7F8B42089
:10305000C7F88020FB67F96FD7F8802041E800238C
:10306000BB67BB6F002BE1D17B681B6814333B66E9
:103070003B6E53E8003FFB65FB6D23F04003C7F850
:10308000B0307B681B681433D7F8B020FA66BB6693
:10309000B96EFA6E41E800237B667B6E002BE3D1AC
:1030A0007B68202283F842207B6800221A637B68B9
:1030B0001B680C33FB64FB6C53E8003FBB64BB6CC8
:1030C00023F01003C7F8AC307B681B680C33D7F8CB
:1030D000AC20BA657B65796DBA6D41E800233B652C
:1030E0003B6D002BE3D17B68DB6B1846FEF7DBF80A
:1030F0007B6802225A637B689A8D7B68DB8D9BB26A
:10310000D31A9BB21946786800F0ADF89CE000BF76
:10311000653400087B689A8D7B68DB8D9BB2D31A7F
:10312000A7F8CE307B68DB8D9BB2002B00F08E8041
:10313000B7F8CE30002B00F089807B681B680C3319
:10314000BB63BB6B53E8003F7B637B6B23F49073E3
:10315000C7F8C8307B681B680C33D7F8C8207A647E
:103160003B64396C7A6C41E80023FB63FB6B002BFA
:10317000E3D17B681B6814337B627B6A53E8003FB2
:103180003B623B6A23F00103C7F8C4307B681B68CD
:103190001433D7F8C4203A63FB62F96A3A6B41E80A
:1031A0000023BB62BB6A002BE3D17B68202283F83B
:1031B00042207B6800221A637B681B680C333B61EA
:1031C0003B6953E8003FFB60FB6823F01003C7F83E
:1031D000C0307B681B680C33D7F8C020FA61BB6134
:1031E000B969FA6941E800237B617B69002BE3D16F
:1031F0007B6802225A63B7F8CE301946786800F02F
:1032000032F823E0D7F8E43003F08003002B09D034
:10321000D7F8E03003F08003002B03D0786800F08B
:1032200035F914E0D7F8E43003F04003002B0ED05A
:10323000D7F8E03003F04003002B08D0786800F0A6
:1032400074F904E000BF02E000BF00E000BFE8370F
:10325000BD4680BD80B483B000AF786000BF0C373E
:10326000BD4680BC704780B483B000AF78600B4629
:103270007B8000BF0C37BD4680BC704780B586B0F0
:1032800000AFF860B9603B601346FB713BE03B6AFE
:10329000B3F1FF3F37D0FDF721FE02463B68D31A5A
:1032A0003A6A9A4202D33B6A002B01D103233AE0E7
:1032B000FB681B68DB6803F00403002B23D0BB68AA
:1032C000802B20D0BB68402B1DD0FB681B681B687F
:1032D00003F00803082B16D100237B61FB681B68F1
:1032E0001B687B61FB681B685B687B617B69F868B6
:1032F00000F056F8FB6808225A64FB68002283F845
:10330000402001230FE0FB681B681A68BB6813406C
:10331000BA689A420CBF01230023DBB21A46FB793C
:103320009A42B4D0002318461837BD4680BD80B4F9
:1033300085B000AFF860B9601346FB80FB68BA68DF
:103340009A62FB68FA889A85FB68FA88DA85FB68D6
:1033500000225A64FB68222283F84220FB681B6922
:10336000002B07D0FB681B68DA68FB681B6842F417
:103370008072DA60FB681B685A69FB681B6842F060
:1033800001025A61FB681B68DA68FB681B6842F03F
:103390002002DA60002318461437BD4680BC70470F
:1033A00080B495B000AF78607B681B680C337B639A
:1033B0007B6B53E8003F3B633B6B23F49073FB64F0
:1033C0007B681B680C33FA6C3A64FB63F96B3A6CEC
:1033D00041E80023BB63BB6B002BE5D17B681B6816
:1033E00014333B623B6A53E8003FFB61FB6923F007
:1033F0000103BB647B681B681433BA6CFA62BB625E
:10340000B96AFA6A41E800237B627B6A002BE5D146
:103410007B681B6B012B19D17B681B680C33FB602D
:10342000FB6853E8003FBB60BB6823F010037B647C
:103430007B681B680C337A6CBA617B617969BA6905
:1034400041E800233B613B69002BE5D17B682022EA
:1034500083F842207B6800221A6300BF5437BD46C0
:1034600080BC704780B584B000AF78607B685B6AD1
:10347000FB60FB680022DA85FB680022DA84F868CA
:10348000FFF7E8FE00BF1037BD4680BD80B485B0B1
:1034900000AF78607B6893F84130DBB2212B3ED1DE
:1034A0007B689B68B3F5805F14D17B681B69002B38
:1034B00010D17B681B6AFB60FB681B881A467B681F
:1034C0001B68C2F308025A607B681B6A9A1C7B68FF
:1034D0001A6208E07B681B6A591C7A6811621A78C4
:1034E0007B681B685A607B68DB8C9BB2013B9BB29C
:1034F0007A681946D184002B0FD17B681B68DA6883
:103500007B681B6822F08002DA607B681B68DA68DF
:103510007B681B6842F04002DA60002300E002236F
:1035200018461437BD4680BC704780B582B000AFE6
:1035300078607B681B68DA687B681B6822F0400251
:10354000DA607B68202283F84120786803F03AFE35
:10355000002318460837BD4680BD80B58CB000AF4B
:1035600078607B6893F84230DBB2222B40F0AE806B
:103570007B689B68B3F5805F17D17B681B69002B64
:1035800013D10023FB627B689B6ABB627B681B686C
:103590005B689BB2C3F308039AB2BB6A1A807B686C
:1035A0009B6A9A1C7B689A6226E07B689B6AFB6236
:1035B0000023BB627B689B68B3F5805F07D07B68A4
:1035C0009B68002B0AD17B681B69002B06D17B68A6
:1035D0001B685B68DAB2FB6A1A7008E07B681B68DC
:1035E0005B68DBB203F07F03DAB2FB6A1A707B68B8
:1035F0009B6A5A1C7B689A627B68DB8D9BB2013B9D
:103600009BB27A681946D185002B5DD17B681B6817
:10361000DA687B681B6822F02002DA607B681B682E
:10362000DA687B681B6822F48072DA607B681B684A
:103630005A697B681B6822F001025A617B6820226C
:1036400083F842207B6800225A637B681B6B012B46
:1036500035D17B6800221A637B681B680C337B6161
:103660007B6953E8003F3B613B6923F010037B62B9
:103670007B681B680C337A6A3A62FB61F9693A6AC3
:1036800041E80023BB61BB69002BE5D17B681B6867
:103690001B6803F01003102B0AD10023FB607B682A
:1036A0001B681B68FB607B681B685B68FB60FB68D2
:1036B0007B689B8D19467868FFF7D5FD02E0786836
:1036C00003F062FD002302E0002300E0022318461D
:1036D0003037BD4680BD000080B584B000AF786053
:1036E0007B681B681B6923F440517B68DA687B6840
:1036F0001B680A431A617B689A687B681B691A43D6
:103700007B685B691343BB607B681B68DB6823F4E1
:10371000B05323F00C037A681268B9680B43D36086
:103720007B681B685B6923F440717B689A697B68DE
:103730001B680A435A617B681B682C4A934203D179
:10374000FEF76AFEF86002E0FEF752FEF860FA68E3
:1037500013469B0013449A001A447B685B689B00E5
:10376000B2FBF3F3224AA2FB03235B091901FA68B7
:1037700013469B0013449A001A447B685B689B00C5
:10378000B2FBF3F21A4BA3FB02035B09642000FBBC
:1037900003F3D31A1B013233154AA2FB03235B093F
:1037A00003F0F0031944FA6813469B0013449A008F
:1037B0001A447B685B689B00B2FBF3F20C4BA3FBE3
:1037C00002035B09642000FB03F3D31A1B013233AD
:1037D000074AA2FB03235B0903F00F027B681B6807
:1037E0000A449A6000BF1037BD4680BD00380140D2
:1037F0001F85EB5180B485B000AFF860384680E893
:103800000E00002318461437BD4680BC704780B4B4
:1038100085B000AF78604FF43F43FB607B68B3F83E
:1038200040309AB2FB689BB2DB439BB213409AB222
:103830007B68A3F84020002318461437BD4680BC9F
:10384000704780B483B000AF78600B46FB700023F4
:1038500018460C37BD4680BC704780B485B000AFB9
:10386000F860384680E80E00FB680122A3F840208B
:10387000FB680022A3F84020FB680022A3F8442044
:10388000FB680022A3F85020002318461437BD46D9
:1038900080BC704780B483B000AF786000231846C6
:1038A0000C37BD4680BC704780B483B000AF034680
:1038B0003960FB7197F90730002B0ADB3B68DAB2FD
:1038C0000C4997F907301201D2B20B4483F8002358
:1038D0000AE03B68DAB20849FB7903F00F03043BC6
:1038E0001201D2B20B441A7600BF0C37BD4680BC21
:1038F000704700BF00E100E000ED00E080B500AFE0
:10390000054B1B6802F05EFF0346012B01D001F05E
:10391000DBF900BF80BD00BF10E000E080B500AF64
:1039200000216FF00400FFF7BFFF00BF80BD000063
:1039300080B483B000AFEFF305833B603B68002B9E
:1039400003D06FF005037B600CE0094B1B68002B74
:1039500005D1074B01221A6000237B6002E04FF083
:10396000FF337B607B6818460C37BD4680BC7047D0
:10397000B404002080B582B000AFEFF305833B6054
:103980003B68002B03D06FF005037B6010E00B4B0E
:103990001B68012B09D1FFF7C1FF084B02221A60F7
:1039A00002F0FEF900237B6002E04FF0FF337B6002
:1039B0007B6818460837BD4680BD00BFB4040020B0
:1039C00080B483B000AF064B5B687B60044B9B68A0
:1039D0007A68D31A18460C37BD4680BC704700BFC2
:1039E00010E000E080B400AF044B1B681B0C03F038
:1039F00001031846BD4680BC704700BF10E000E0E0
:103A000080B400AF034B5B6801331846BD4680BCF1
:103A1000704700BF10E000E080B586B000AFEFF364
:103A20001083BB60BB68002B05D1EFF311837B6073
:103A30007B68002B01D0012300E00023FB6072B6FD
:103A400000BF02F0C9FA7861FFF7BAFF3861FFF7EB
:103A5000C9FF0346002B05D0FFF7B2FF38617B6931
:103A600001337B61FFF7CCFF02467B6902FB03F366
:103A70003A6913443B61FB68002B01D162B600BF79
:103A80003B6918461837BD4680BD000080B400AFC2
:103A9000024B1B681846BD4680BC704700000020E2
:103AA00080B58EB004AFF860B9607A6000233B61E6
:103AB000EFF305837B617B69002B7ED1FB68002BD4
:103AC0007BD080233B621823FB6100237B624FF095
:103AD000FF33BB617B68002B45D07B681B68002BE4
:103AE00002D07B681B687B627B689B69002B02D0DD
:103AF0007B689B69FB61FB69002B08D0FB69382B55
:103B000005D87B685B6803F00103002B01D000231C
:103B100054E07B685B69002B03D07B685B699B0882
:103B20003B627B689B68002B0ED07B68DB68A72B11
:103B30000AD97B681B69002B06D07B685B69002B68
:103B400002D00123BB6110E07B689B68002B0CD185
:103B50007B68DB68002B08D17B681B69002B04D1D4
:103B60000023BB6101E00023BB61BB69012B10D1C5
:103B70007B681B697A68926802920193FB690093E3
:103B8000BB683A6A796AF86801F016FF03463B6140
:103B900013E0BB69002B10D13B6A9AB207F1100306
:103BA0000193FB690093BB68796AF86801F064FFD0
:103BB0000346012B01D000233B613B69184628379F
:103BC000BD4680BD80B584B000AF7860EFF305835B
:103BD000BB60BB68002B03D06FF00503FB6007E000
:103BE0000023FB607B68002B02D0786802F0A2F80B
:103BF000FB6818461037BD4680BD80B586B000AF63
:103C0000786000237B61EFF30583FB60FB68002B8A
:103C10002DD14FF0FF333B617B68002B15D07B68C3
:103C20009B68002B06D07B68DB681F2B02D9012321
:103C30003B610CE07B689B68002B08D17B68DB68EC
:103C4000002B04D100233B6101E000233B613B6971
:103C5000012B06D17B689B68184600F037FA786123
:103C600005E03B69002B02D100F069FA78617B69BD
:103C700018461837BD4680BD80B586B000AF786065
:103C800039607B683B613B69002B03D03B68B3F133
:103C9000807F03D36FF003037B6128E0EFF305839C
:103CA000FB60FB68002B1DD00023BB6007F10803FD
:103CB0001A463968386900F0E9FB0346002B03D146
:103CC0006FF002037B6112E03B687B61BB68002BF5
:103CD0000DD0094B4FF080521A60BFF34F8FBFF3E6
:103CE0006F8F04E03968386900F016FB78617B69F2
:103CF00018461837BD4680BD04ED00E080B58CB095
:103D000002AFF860B9607A603B60FB68BB61BB6979
:103D1000002B03D0BB68B3F1807F03D36FF00303A4
:103D2000FB614BE0EFF305837B617B69002B03D0E4
:103D30006FF00503FB6141E07B6803F00103002B9A
:103D400002D001237B6201E000237B627B6803F0E9
:103D50000203002B02D000233B6201E001233B62FF
:103D60003B6800937B6A3A6AB968B86900F002FA66
:103D7000F8617B6803F00103002B10D0BA68FB697F
:103D80001340BA689A4219D03B68002B03D06FF0F9
:103D90000103FB6112E06FF00203FB610EE0BA6801
:103DA000FB691340002B09D13B68002B03D06FF057
:103DB0000103FB6102E06FF00203FB61FB6918463F
:103DC0002837BD4680BD80B58AB002AFF860B960C3
:103DD0007A600023FB61EFF305833B613B69002BB5
:103DE0005FD1FB68002B5CD0BB68002B59D04FF033
:103DF000FF33BB617B68002B29D07B689B68002B5D
:103E000012D07B68DB684F2B0ED97B681B69002BB7
:103E10000AD07B685A69FB68B96801FB03F39A42D0
:103E200002D30123BB6114E07B689B68002B10D197
:103E30007B68DB68002B0CD17B681B69002B08D1E9
:103E40007B685B69002B04D10023BB6101E0002388
:103E5000BB61BB69012B0BD17B681A697B689B68CE
:103E600000210091B968F86801F01CF8F86108E0D9
:103E7000BB69002B05D10022B968F86801F08FF802
:103E8000F861FB69002B0CD07B68002B03D07B68AA
:103E90001B687B6101E000237B617969F86901F0AF
:103EA0002FFDFB6918462037BD4680BD80B588B020
:103EB00000AFF860B9603B601346FB71FB68BB6103
:103EC0000023FB61EFF305837B617B69002B28D026
:103ED000BB69002B05D0BB68002B02D03B68002BD0
:103EE00003D06FF00303FB6138E000233B6107F16F
:103EF00010020023B968B86901F0B2F90346012B3A
:103F000003D06FF00203FB6128E03B69002B25D052
:103F1000154B4FF080521A60BFF34F8FBFF36F8F76
:103F20001CE0BB69002B02D0BB68002B03D16FF0F3
:103F30000303FB6112E000233A68B968B86901F035
:103F40008DF80346012B09D03B68002B03D06FF09E
:103F50000103FB6102E06FF00203FB61FB6918469D
:103F60002037BD4680BD00BF04ED00E080B588B0BD
:103F700000AFF860B9607A603B60FB68BB6100230A
:103F8000FB61EFF305837B617B69002B28D0BB6964
:103F9000002B05D0BB68002B02D03B68002B03D060
:103FA0006FF00303FB6137E000233B6107F110036F
:103FB0001A46B968B86901F0D3FA0346012B03D059
:103FC0006FF00203FB6127E03B69002B24D0154B07
:103FD0004FF080521A60BFF34F8FBFF36F8F1BE01B
:103FE000BB69002B02D0BB68002B03D16FF0030329
:103FF000FB6111E03A68B968B86901F0CFF903468E
:10400000012B09D03B68002B03D06FF00103FB614B
:1040100002E06FF00203FB61FB6918462037BD46E2
:1040200080BD00BF04ED00E080B586B000AF7860D1
:104030007B683B613B69002B02D100237B610EE072
:10404000EFF30583FB60FB68002B04D0386901F0B7
:1040500028FB786103E0386901F004FB78617B6933
:1040600018461837BD4680BD80B485B000AFF860F3
:10407000B9607A60FB68064A1A60BB68054A1A6034
:104080007B6880221A6000BF1437BD4680BC704731
:10409000B80400206005002080B485B000AFF8604F
:1040A000B9607A60FB68074A1A60BB68064A1A6002
:1040B0007B684FF480721A6000BF1437BD4680BC25
:1040C000704700BF600700200808002080B586B058
:1040D00000AF78607B68002B0BD14FF0500383F367
:1040E0001188BFF36F8FBFF34F8F3B6100BF00BFDD
:1040F000FDE72023BB60BB68202B0BD04FF05003A3
:1041000083F31188BFF36F8FBFF34F8FFB6000BF46
:1041100000BFFDE77B687B617B69002B0AD07B6970
:1041200000221A607B690433184600F0AFFB7B69FC
:1041300001221A777B6918461837BD4680BD80B5C5
:1041400082B000AF202000F0B5F978607B68002BCA
:104150000AD07B6800221A607B680433184600F09E
:1041600095FB7B6800221A777B6818460837BD46A6
:1041700080BD000080B590B000AFF860B9607A6093
:104180003B60FB687B630023BB6300233B63FB68EE
:10419000002B0BD14FF0500383F31188BFF36F8FC7
:1041A000BFF34F8F3B6200BF00BFFDE7BB68B3F1B9
:1041B000807F0BD34FF0500383F31188BFF36F8FD1
:1041C000BFF34F8FFB6100BF00BFFDE7BB68002B53
:1041D0000BD14FF0500383F31188BFF36F8FBFF300
:1041E0004F8FBB6100BF00BFFDE702F0EBFA034653
:1041F000002B02D1BB6C002B01D1012300E0002376
:10420000002B0BD14FF0500383F31188BFF36F8F56
:10421000BFF34F8F7B6100BF00BFFDE701F030FEB1
:104220007B6B1B68FB623A68B968F86A00F00DF9AD
:10423000B862BB6A002B0ED0FB6AFB630023BB6431
:104240007B68002B28D07B6B1A68BB68DB431A4065
:104250007B6B1A6020E0BB6C002B04D1FB6AFB6314
:1042600001233B6318E07B68002B03D0BB6B43F05A
:104270008073BB633B68002B03D0BB6B43F0806350
:10428000BB637B6B181DBA68BB6B1343BA6C1946D2
:1042900002F004F80023FB6301F000FE7862BB6CBF
:1042A000002B31D07B6A002B07D11A4B4FF0805284
:1042B0001A60BFF34F8FBFF36F8F02F011FBF863EB
:1042C000FB6B03F00073002B1AD100F07FFC7B6BBB
:1042D0001B68FB633A68B968F86B00F0B6F80346F0
:1042E000002B09D07B68002B06D07B6B1A68BB685B
:1042F000DB431A407B6B1A6001233B6300F096FCA2
:10430000FB6B23F07F43FB63FB6B18464037BD46D6
:1043100080BD00BF04ED00E080B58EB000AF7860D6
:10432000396000233B637B68BB620023FB627B68D0
:10433000002B0BD14FF0500383F31188BFF36F8F25
:10434000BFF34F8F3B6100BF00BFFDE73B68B3F198
:10435000807F0BD34FF0500383F31188BFF36F8F2F
:10436000BFF34F8FFB6000BF00BFFDE7BB6A0433A4
:104370007B627B6A08333B6201F082FD7B6ADB680B
:104380007B63BB6A1A683B681A43BB6A1A603CE0ED
:104390007B6B5B68FB617B6B1B68BB610023FB6213
:1043A000BB6903F07F437B61BB6923F07F43BB6143
:1043B0007B6903F08063002B08D1BB6A1A68BB6974
:1043C0001340002B0BD00123FB6208E0BB6A1A6884
:1043D000BB691340BA699A4201D10123FB62FB6AAF
:1043E000002B10D07B6903F08073002B03D03A6B55
:1043F000BB6913433B63BB6A1B6843F000731946F8
:10440000786B02F019F8FB697B637A6B3B6A9A421E
:10441000BED1BB6A1A683B6BDB431A40BB6A1A60A9
:1044200001F03CFDBB6A1B6818463837BD4680BDAD
:1044300080B582B000AF7860396039687868FFF77E
:104440006BFF00BF0837BD4680BD80B487B000AFAA
:10445000F860B9607A6000237B617B68002B07D12C
:10446000FA68BB681340002B0AD001237B6107E088
:10447000FA68BB681340BA689A4201D101237B6194
:104480007B6918461C37BD4680BC704780B586B036
:1044900000AFF860B9607A607B68BA68F968044870
:1044A00002F0E2FD78617B6918461837BD4680BD91
:1044B0003144000880B58AB000AF78600023FB610A
:1044C00001F0DEFC5C4B1B68002B01D100F024F9ED
:1044D0005A4B1A687B681340002B40F095807B682C
:1044E000002B1ED008227B6813447B607B6803F09E
:1044F0000703002B15D07B6823F0070308337B608C
:104500007B6803F00703002B0BD04FF0500383F3BD
:104510001188BFF36F8FBFF34F8F7B6100BF00BF68
:10452000FDE77B68002B6FD0454B1B687A689A4289
:104530006AD8444B3B62434B1B687B6204E07B6A56
:104540003B627B6A1B687B627B6A5B687A689A4223
:1045500003D97B6A1B68002BF1D1374B1B687A6A41
:104560009A4251D03B6A1B6808221344FB617B6A64
:104570001A683B6A1A607B6A5A687B68D21A0823F9
:104580005B009A4220D97A6A7B681344BB61BB699D
:1045900003F00703002B0BD04FF0500383F3118877
:1045A000BFF36F8FBFF34F8F3B6100BF00BFFDE7CD
:1045B0007B6A5A687B68D21ABB695A607B6A7A68E0
:1045C0005A60B86900F00AF91D4B1A687B6A5B688B
:1045D000D31A1B4A13601A4B1A681B4B1B689A426A
:1045E00003D2174B1B68184A13607B6A5A68134B37
:1045F0001B681A437B6A5A607B6A00221A60134B5D
:104600001B680133114A136001F048FCFB6903F099
:104610000703002B0BD04FF0500383F31188BFF337
:104620006F8FBFF34F8FFB6000BF00BFFDE7FB69DB
:1046300018462837BD4680BDF03A0020043B0020D4
:10464000F43A0020E83A0020F83A0020FC3A002032
:1046500080B586B000AF78607B687B617B68002B9B
:104660004FD008235B427A6913447B617B693B61CD
:104670003B695A68254B1B681340002B0BD14FF048
:10468000500383F31188BFF36F8FBFF34F8FFB602D
:1046900000BF00BFFDE73B691B68002B0BD04FF04C
:1046A000500383F31188BFF36F8FBFF34F8FBB604D
:1046B00000BF00BFFDE73B695A68144B1B681340FD
:1046C000002B1ED03B691B68002B1AD13B695A682E
:1046D0000E4B1B68DB431A403B695A6001F0D0FB6C
:1046E0003B695A680A4B1B681344094A13603869CE
:1046F00000F074F8074B1B680133064A136001F0A1
:10470000CDFB00BF1837BD4680BD00BF043B002075
:10471000F43A0020003B002080B485B000AF42F6A0
:10472000E063BB60274BFB60FB6803F00703002BD3
:104730000CD0FB680733FB60FB6823F00703FB60CA
:10474000BA68FB68D31A1F4A1344BB60FB687B60DE
:104750001D4A7B6813601C4B00225A607B68BA6854
:104760001344FB600822FB689B1AFB60FB6823F084
:104770000703FB60FB68154A1360144B1B6800229B
:104780005A60124B1B6800221A607B683B603B68D2
:10479000FA68D21A3B685A600C4B1A683B681A6078
:1047A0003B685B680A4A13603B685B68094A1360B0
:1047B000094B4FF000421A6000BF1437BD4680BC61
:1047C000704700BF080C0020E83A0020F03A0020B3
:1047D000F83A0020F43A0020043B002080B485B071
:1047E00000AF7860274BFB6002E0FB681B68FB6052
:1047F000FB681B687A689A42F7D8FB68BB60FB6865
:104800005B68BA6813447A689A4208D1FB685A68B0
:104810007B685B681A44FB685A60FB687B607B6856
:10482000BB607B685B68BA681A44FB681B689A4285
:1048300018D1FB681A68144B1B689A420DD07B682C
:104840005A68FB681B685B681A447B685A60FB689F
:104850001B681A687B681A6008E00B4B1A687B6853
:104860001A6003E0FB681A687B681A60FA687B6864
:104870009A4202D0FB687A681A6000BF1437BD46BE
:1048800080BC7047E83A0020F03A002080B483B042
:1048900000AF78607B6803F108027B685A607B6830
:1048A0004FF0FF329A607B6803F108027B68DA60A0
:1048B0007B6803F108027B681A617B6800221A603A
:1048C00000BF0C37BD4680BC704780B483B000AFDA
:1048D00078607B6800221A6100BF0C37BD4680BC3F
:1048E000704780B485B000AF786039607B685B68E2
:1048F000FB603B68FA685A60FB689A683B689A609C
:10490000FB689B683A685A60FB683A689A603B6843
:104910007A681A617B681B685A1C7B681A6000BF42
:104920001437BD4680BC704780B485B000AF786056
:1049300039603B681B68BB60BB68B3F1FF3F03D1C4
:104940007B681B69FB600CE07B680833FB6002E05E
:10495000FB685B68FB60FB685B681B68BA689A422F
:10496000F6D2FB685A683B685A603B685B683A68F5
:104970009A603B68FA689A60FB683A685A603B68DC
:104980007A681A617B681B685A1C7B681A6000BFD2
:104990001437BD4680BC704780B485B000AF7860E6
:1049A0007B681B69FB607B685B687A6892689A60C9
:1049B0007B689B687A6852685A60FB685B687A68B3
:1049C0009A4203D17B689A68FB685A607B68002230
:1049D0001A61FB681B685A1EFB681A60FB681B683B
:1049E00018461437BD4680BC7047000080B485B0BF
:1049F00000AFF860B9607A60FB68043BFB60FB685D
:104A00004FF080721A60FB68043BFB60BB6823F0C8
:104A10000102FB681A60FB68043BFB60084AFB6804
:104A20001A60FB68143BFB607A68FB681A60FB68DD
:104A3000203BFB60FB6818461437BD4680BC7047BE
:104A4000454A000880B485B000AF00237B60124B5C
:104A50001B68B3F1FF3F0BD04FF0500383F3118875
:104A6000BFF36F8FBFF34F8FFB6000BF00BFFDE749
:104A70004FF0500383F31188BFF36F8FBFF34F8F55
:104A8000BB6000BF00BF7B68002BFCD000BF00BF35
:104A90001437BD4680BC70470C00002000000000A9
:104AA000074B19680868B0E8F00F80F30988BFF376
:104AB0006F8F4FF0000080F311884EF00D0E70479D
:104AC000503B002000BF00BF06480068006880F32C
:104AD000088862B661B6BFF34F8FBFF36F8F00DFF8
:104AE00000BF00BF08ED00E080B584B000AF324BDE
:104AF000FB60FB681B78DBB27B60FB68FF221A70EF
:104B0000FB681B78DBB2FB70FB78DBB203F0500371
:104B1000DAB22A4B1A702A4B07221A6009E0284B96
:104B20001B68013B264A1360FB78DBB25B00DBB2FB
:104B3000FB70FB78DBB203F08003802BEFD0204BBF
:104B40001B68C3F10703042B0BD04FF0500383F312
:104B50001188BFF36F8FBFF34F8FBB6000BF00BFE3
:104B6000FDE7174B1B681B02154A1360144B1B68AB
:104B700003F4E063124A13607B68DAB2FB681A70D0
:104B8000104B1B680F4A43F4700313600D4B1B68F6
:104B90000C4A43F07043136000F0B8F80A4B00224F
:104BA0001A60FFF791FF01F0DFFAFFF74BFF0023D8
:104BB00018461037BD4680BD00E400E0083B0020E9
:104BC0000C3B002020ED00E00C00002080B483B0FE
:104BD00000AF4FF0500383F31188BFF36F8FBFF323
:104BE0004F8F7B6000BF0F4B1B6801330D4A136072
:104BF0000C4B1B68012B10D10B4B1B68DBB2002B3D
:104C00000BD04FF0500383F31188BFF36F8FBFF3C6
:104C10004F8F3B6000BF00BFFDE700BF0C37BD46B4
:104C200080BC70470C00002004ED00E080B483B02D
:104C300000AF124B1B68002B0BD14FF0500383F3D6
:104C40001188BFF36F8FBFF34F8F7B6000BF00BF32
:104C5000FDE70A4B1B68013B084A1360074B1B68C2
:104C6000002B05D100233B603B6883F3118800BF14
:104C700000BF0C37BD4680BC704700BF0C00002051
:104C8000EFF30980BFF36F8F0D4B1A6820E9F00F27
:104C900010602DE908404FF0500080F3118801F0BA
:104CA00063FA4FF0000080F31188BDE808401968EE
:104CB0000868B0E8F00F80F30988BFF36F8F704782
:104CC000503B002000BF00BF80B582B000AF4FF066
:104CD000500383F31188BFF36F8FBFF34F8F7B6057
:104CE00000BF01F087F90346002B03D0064B4FF0BD
:104CF00080521A6000233B603B6883F3118800BF39
:104D000000BF0837BD4680BD04ED00E080B400AFB1
:104D10000A4B00221A600A4B00221A60094B1B68DA
:104D2000094AA2FB03239B09084A013B1360034B7A
:104D300007221A6000BFBD4680BC704710E000E04B
:104D400018E000E000000020D34D621014E000E005
:104D500080B485B000AFEFF30583FB60FB680F2BD9
:104D600015D9174AFB6813441B78FB72154B1B7847
:104D7000FA7A9A420BD24FF0500383F31188BFF3B3
:104D80006F8FBFF34F8F7B6000BF00BFFDE70E4BFF
:104D90001B6803F4E0620D4B1B689A420BD94FF07D
:104DA000500383F31188BFF36F8FBFF34F8F3B60C6
:104DB00000BF00BFFDE700BF1437BD4680BC704791
:104DC000F0E300E0083B00200CED00E00C3B00208D
:104DD00080B584B000AF786039607B68FB60FB68A9
:104DE000002B0BD14FF0500383F31188BFF36F8F6B
:104DF000BFF34F8FBB6000BF00BFFDE7FFF7E6FECC
:104E0000FB681A68FB68DB6BF968096C01FB03F34C
:104E10001A44FB689A60FB6800229A63FB681A6870
:104E2000FB685A60FB681A68FB68DB6B013BF9683A
:104E3000096C01FB03F31A44FB68DA60FB68FF228C
:104E400083F84420FB68FF2283F845203B68002B51
:104E500014D1FB681B69002B1AD0FB68103318466D
:104E600001F086FA0346002B12D00D4B4FF0805212
:104E70001A60BFF34F8FBFF36F8F09E0FB681033E9
:104E80001846FFF703FDFB6824331846FFF7FEFCC6
:104E9000FFF7CCFE012318461037BD4680BD00BF8A
:104EA00004ED00E080B58EB002AFF860B9607A60C2
:104EB0003B60FB68002B0BD14FF0500383F311884C
:104EC000BFF36F8FBFF34F8FBB6200BF00BFFDE723
:104ED0003B68002B0BD14FF0500383F31188BFF3D5
:104EE0006F8FBFF34F8F7B6200BF00BFFDE77B6812
:104EF000002B02D0BB68002B01D0012300E000236F
:104F0000002B0BD14FF0500383F31188BFF36F8F49
:104F1000BFF34F8F3B6200BF00BFFDE77B68002BF4
:104F200002D1BB68002B01D1012300E00023002B3C
:104F30000BD14FF0500383F31188BFF36F8FBFF392
:104F40004F8FFB6100BF00BFFDE750237B617B6992
:104F5000502B0BD04FF0500383F31188BFF36F8FAA
:104F6000BFF34F8FBB6100BF00BFFDE77B693B68AC
:104F7000FB62FB6A002B0DD0FB6A012283F84620FE
:104F800097F83820FB6A009313467A68B968F86886
:104F900000F040F8FB6A18463037BD4680BD80B54A
:104FA0008AB002AFF860B9601346FB71FB68002B52
:104FB0000BD14FF0500383F31188BFF36F8FBFF312
:104FC0004F8F3B6100BF00BFFDE7FB68BA6802FB83
:104FD00003F3FB61FB6950331846FFF76BFAB861C6
:104FE000BB69002B11D0BB697B617B6950337B614E
:104FF000BB69002283F84620FA79BB690093134607
:105000007A69B968F86800F005F8BB691846203776
:10501000BD4680BD80B584B000AFF860B9607A60ED
:10502000FB70BB68002B03D1BB69BA691A6002E050
:10503000BB697A681A60BB69FA68DA63BB69BA68E7
:105040001A640121B869FFF7C3FEBB69FA7883F8D7
:105050004C2000BF1037BD4680BD000080B58EB02B
:1050600000AFF860B9607A603B6000237B63FB6847
:105070003B633B6B002B0BD14FF0500383F3118844
:10508000BFF36F8FBFF34F8FBB6200BF00BFFDE761
:10509000BB68002B03D13B6B1B6C002B01D10123A0
:1050A00000E00023002B0BD14FF0500383F3118855
:1050B000BFF36F8FBFF34F8F7B6200BF00BFFDE771
:1050C0003B68022B03D13B6BDB6B012B01D101232E
:1050D00000E00023002B0BD14FF0500383F3118825
:1050E000BFF36F8FBFF34F8F3B6200BF00BFFDE781
:1050F00001F068FB0346002B02D17B68002B01D135
:10510000012300E00023002B0BD14FF0500383F369
:105110001188BFF36F8FBFF34F8FFB6100BF00BFDC
:10512000FDE7FFF753FD3B6B9A6B3B6BDB6B9A42E2
:1051300002D33B68022B29D13A68B968386B00F07A
:10514000CEFAF8623B6B5B6A002B10D03B6B2433CA
:10515000184601F00DF90346002B13D03F4B4FF0DA
:1051600080521A60BFF34F8FBFF36F8F0AE0FB6A64
:10517000002B07D0394B4FF080521A60BFF34F8F8E
:10518000BFF36F8FFFF752FD012363E07B68002BB5
:1051900003D1FFF74BFD00235CE07B6B002B06D1B6
:1051A00007F11403184601F0ABF901237B63FFF705
:1051B0003DFD00F065FEFFF709FD3B6B93F84430C1
:1051C0005BB2B3F1FF3F03D13B6B002283F8442075
:1051D0003B6B93F845305BB2B3F1FF3F03D13B6BC0
:1051E000002283F84520FFF721FD3A1D07F1140343
:1051F0001146184601F09AF90346002B24D1386B6A
:1052000000F065FB0346002B18D03B6B10337A6827
:105210001146184601F01CF8386B00F0F0FA00F067
:105220003DFE0346002B7FF47CAF0C4B4FF08052C9
:105230001A60BFF34F8FBFF36F8F72E7386B00F0C8
:10524000DEFA00F02BFE6CE7386B00F0D8FA00F0C5
:1052500025FE002318463837BD4680BD04ED00E02A
:1052600080B590B000AFF860B9607A603B60FB68D1
:10527000BB63BB6B002B0BD14FF0500383F3118842
:10528000BFF36F8FBFF34F8FBB6200BF00BFFDE75F
:10529000BB68002B03D1BB6B1B6C002B01D101231E
:1052A00000E00023002B0BD14FF0500383F3118853
:1052B000BFF36F8FBFF34F8F7B6200BF00BFFDE76F
:1052C0003B68022B03D1BB6BDB6B012B01D10123AC
:1052D00000E00023002B0BD14FF0500383F3118823
:1052E000BFF36F8FBFF34F8F3B6200BF00BFFDE77F
:1052F000FFF72EFDEFF311824FF0500383F3118877
:10530000BFF36F8FBFF34F8FFA61BB61FB697B63A4
:10531000BB6B9A6BBB6BDB6B9A4202D33B68022B75
:105320002FD1BB6B93F8453087F83330BB6B9B6B49
:10533000FB623A68B968B86B00F0D1F997F933307D
:10534000B3F1FF3F12D1BB6B5B6A002B16D0BB6B76
:105350002433184601F00CF80346002B0ED07B686E
:10536000002B0BD07B6801221A6007E097F83330DE
:105370000133DBB25AB2BB6B83F845200123FB63D8
:1053800001E00023FB637B6B7B617B6983F3118806
:1053900000BFFB6B18464037BD4680BD80B58CB062
:1053A00000AFF860B9607A600023FB62FB68BB6203
:1053B000BB6A002B0BD14FF0500383F31188BFF36E
:1053C0006F8FBFF34F8F3B6200BF00BFFDE7BB682D
:1053D000002B03D1BB6A1B6C002B01D1012300E021
:1053E0000023002B0BD14FF0500383F31188BFF340
:1053F0006F8FBFF34F8FFB6100BF00BFFDE701F070
:10540000E1F90346002B02D17B68002B01D1012377
:1054100000E00023002B0BD14FF0500383F31188E1
:10542000BFF36F8FBFF34F8FBB6100BF00BFFDE7BE
:10543000FFF7CCFBBB6A9B6B7B627B6A002B1FD0A8
:10544000B968B86A00F0B5F97B6A5A1EBB6A9A63FC
:10545000BB6A1B69002B0FD0BB6A1033184600F0E3
:1054600087FF0346002B07D03C4B4FF080521A6059
:10547000BFF34F8FBFF36F8FFFF7D8FB012369E0B6
:105480007B68002B03D1FFF7D1FB002362E0FB6AAE
:10549000002B06D107F11003184601F031F8012363
:1054A000FB62FFF7C3FB00F0EBFCFFF78FFBBB6A6F
:1054B00093F844305BB2B3F1FF3F03D1BB6A0022E3
:1054C00083F84420BB6A93F845305BB2B3F1FF3FE9
:1054D00003D1BB6A002283F84520FFF7A7FB3A1DE2
:1054E00007F110031146184601F020F80346002B7F
:1054F00023D1B86A00F0D5F90346002B17D0BB6A58
:1055000024337A681146184600F0A2FEB86A00F00B
:1055100076F900F0C3FC0346002B89D10F4B4FF006
:1055200080521A60BFF34F8FBFF36F8F80E7B86A66
:1055300000F065F900F0B2FC7AE7B86A00F05FF9B4
:1055400000F0ACFCB86A00F0ACF90346002B3FF465
:105550006FAF002318463037BD4680BD04ED00E034
:1055600080B58EB000AFF860B9607A60FB683B63CD
:105570003B6B002B0BD14FF0500383F31188BFF32B
:105580006F8FBFF34F8F3B6200BF00BFFDE7BB686B
:10559000002B03D13B6B1B6C002B01D1012300E0DE
:1055A0000023002B0BD14FF0500383F31188BFF37E
:1055B0006F8FBFF34F8FFB6100BF00BFFDE7FFF7A9
:1055C000C7FBEFF311824FF0500383F31188BFF351
:1055D0006F8FBFF34F8FBA617B61BB69FB623B6B1F
:1055E0009B6BBB62BB6A002B2FD03B6B93F84430A4
:1055F00087F82730B968386B00F0DBF8BB6A5A1EB1
:105600003B6B9A6397F92730B3F1FF3F12D13B6BA5
:105610001B69002B16D03B6B1033184600F0A8FE18
:105620000346002B0ED07B68002B0BD07B68012239
:105630001A6007E097F827300133DBB25AB23B6BB0
:1056400083F8442001237B6301E000237B63FB6A32
:105650003B613B6983F3118800BF7B6B1846383789
:10566000BD4680BD80B584B000AF78607B68002BFC
:105670000BD14FF0500383F31188BFF36F8FBFF34B
:105680004F8FBB6000BF00BFFDE7FFF79FFA7B684D
:105690009B6BFB60FFF7CAFAFB6818461037BD46E4
:1056A00080BD80B487B000AF78607B687B617B6928
:1056B000002B0BD14FF0500383F31188BFF36F8F92
:1056C000BFF34F8FFB6000BF00BFFDE77B699B6BA3
:1056D0003B613B6918461C37BD4680BC704780B5AE
:1056E00086B000AFF860B9607A6000237B61FB6828
:1056F0009B6B3B61FB681B6C002B0DD1FB681B682F
:10570000002B4DD1FB689B68184601F079F8786151
:10571000FB6800229A6043E07B68002B19D1FB688C
:105720005868FB681B6C1A46B96802F07FF9FB6881
:105730005A68FB681B6C1A44FB685A60FB685A681D
:10574000FB689B689A422BD3FB681A68FB685A6017
:1057500026E0FB68D868FB681B6C1A46B96802F043
:1057600065F9FB68DA68FB681B6C5B421A44FB68EE
:10577000DA60FB68DA68FB681B689A4207D2FB684C
:105780009A68FB681B6C5B421A44FB68DA607B68B2
:10579000022B05D13B69002B02D03B69013B3B61E9
:1057A0003B695A1CFB689A637B6918461837BD46EB
:1057B00080BD80B582B000AF786039607B681B6CBB
:1057C000002B18D07B68DA687B681B6C1A447B68F6
:1057D000DA607B68DA687B689B689A4203D37B68EF
:1057E0001A687B68DA607B68D9687B681B6C1A462C
:1057F000386802F01BF900BF0837BD4680BD80B590
:1058000084B000AF7860FFF7E1F97B6893F845302A
:10581000FB7311E07B685B6A002B12D07B6824333A
:10582000184600F0A5FD0346002B01D000F0E2FE73
:10583000FB7B013BDBB2FB7397F90F30002BE9DCFC
:1058400000E000BF7B68FF2283F84520FFF7EEF9F8
:10585000FFF7BCF97B6893F84430BB7311E07B68B9
:105860001B69002B12D07B681033184600F080FDB6
:105870000346002B01D000F0BDFEBB7B013BDBB239
:10588000BB7397F90E30002BE9DC00E000BF7B68AA
:10589000FF2283F84420FFF7C9F900BF1037BD4647
:1058A00080BD80B584B000AF7860FFF78FF97B686A
:1058B0009B6B002B02D10123FB6001E00023FB6006
:1058C000FFF7B4F9FB6818461037BD4680BD80B5B8
:1058D00084B000AF7860FFF779F97B689A6B7B68DA
:1058E000DB6B9A4202D10123FB6001E00023FB60E5
:1058F000FFF79CF9FB6818461037BD4680BD0000D5
:1059000080B485B000AF786039600023FB6014E09C
:105910000E4AFB6852F83330002B0BD10B49FB6861
:105920003A6841F83320094AFB68DB0013447A687F
:105930005A6006E0FB680133FB60FB68072BE7D980
:1059400000BF00BF1437BD4680BC7047103B00202D
:1059500080B586B000AFF860B9607A60FB687B61A3
:10596000FFF734F97B6993F844305BB2B3F1FF3F42
:1059700003D17B69002283F844207B6993F845308A
:105980005BB2B3F1FF3F03D17B69002283F845206E
:10599000FFF74CF97B699B6B002B06D17B692433A5
:1059A0007A68B968184600F0B7FC7869FFF727FFF6
:1059B00000BF1837BD4680BD80B58EB004AFF8601B
:1059C000B9607A603B607B6B002B0BD14FF05003CA
:1059D00083F31188BFF36F8FBFF34F8F3B6200BF1C
:1059E00000BFFDE7BB6B002B0BD14FF0500383F3DF
:1059F0001188BFF36F8FBFF34F8FFB6100BF00BFF4
:105A0000FDE7A8233B613B69A82B0BD04FF0500367
:105A100083F31188BFF36F8FBFF34F8FBB6100BF5C
:105A200000BFFDE73B69BB6B002B1ED07B6B002BDF
:105A30001BD0BB6B7B627B6A7A6B1A637B6A022228
:105A400083F8A520002303937B6A029307F11403D4
:105A500001933B6B00933B687A68B968F86800F083
:105A600051F8786A00F0F6F801E000237B617B6969
:105A700018462837BD4680BD80B58CB004AFF860AD
:105A8000B9603B601346FB80FB889B001846FEF71D
:105A900011FD78617B69002B0ED0A820FEF70AFD6E
:105AA000F861FB69002B03D0FB697A691A6305E092
:105AB0007869FEF7CDFD01E00023FB61FB69002B57
:105AC00017D0FB69002283F8A520FA8800230393EE
:105AD000FB690293FB6A0193BB6A00933B68B96858
